:020000021000EC
:1000000098F60320A9020100A5020100A502010043
:10001000A5020100A5020100A502010000000000E8
:10002000000000000000000000000000A502010028
:10003000A502010000000000A5020100A5020100C8
:10004000A5020100A5020100A5020100A502010010
:10005000A5020100A5020100A5020100A502010000
:10006000A5020100A5020100A5020100159A0100E8
:1000700015700100217001002D7001003970010020
:1000800045700100517001005D7001006970010050
:1000900075700100817001008D7001009970010080
:1000A000A5700100B1700100BD700100C9700100B0
:1000B000A5020100A9330100D5330100DD4D010087
:1000C000A5020100A5020100A5020100A502010090
:1000D000A5020100A5020100A5020100A502010080
:1000E000A5020100A50201000000000000000000C0
:1000F0000000000009340100A5020100A502010072
:10010000A5020100A5020100A5020100A50201004F
:1001100039B0010019B10100A5020100A5020100DA
:1001200075B00100E9B00100A5020100A5020100BF
:10013000A502010095490100A5020100A5020100E8
:10014000B1B00100A5020100A5020100A502010055
:10015000A5020100A502010000000000000000004F
:10016000000000000000000000000000000000008F
:10017000000000000000000000000000000000007F
:10018000A5020100A5020100A5020100A5020100CF
:1001900000000000C13C0100A5020100A502010011
:1001A000A5020100A5020100A5020100A5020100AF
:1001B000D13C0100A5020100A5020100A502010039
:1001C000A5020100A5020100A5020100A50201008F
:1001D000A5020100E13C0100A5020100A502010009
:1001E000A5020100A5020100A5020100A50201006F
:1001F000A5020100A5020100A5020100A50201005F
:10020000A50201000000000000000000A50201009E
:10021000A5020100A5020100A5020100A50201003E
:10022000A5020100A5020100A5020100A50201002E
:10023000A5020100A5020100A5020100A50201001E
:10024000A5020100A5020100A5020100A50201000E
:10025000A5020100A5020100A5020100A5020100FE
:100260000000000010B5054C237833B9044B13B1DE
:100270000448AFF300800123237010BD200A002042
:1002800000000000C4C4030008B5034B1BB10349C0
:100290000348AFF3008008BD00000000240A0020DE
:1002A000C4C40300FEE7000018491948814210B594
:1002B0000AD0184BDA1C121A22F00302C41EA34201
:1002C00038BF0022144B9847144B1548DA1C121AF9
:1002D000C11E22F00302994288BF0022114B002167
:1002E0009847114A114B22F07F029A60D3F8882078
:1002F00042F47002C3F88820BFF34F8FBFF36F8FB3
:100300000B4B98470B4B9847FEE700BFC4C4030054
:1003100000000020040A0020A1EE010094F6022053
:10032000200A0020BDEE01000000010000ED00E009
:1003300041EE010025C5010010B50E4B0020984785
:100340000128044611D002280BD080B90A4B1B7833
:1003500013B10224204610BD084B98478307F8D0FC
:10036000F8E7054B00221A70F4E70324F2E70124B2
:10037000F0E700BF814001003C0A0020ED4401008D
:1003800010B5094B00209847044650B9074B9847D1
:10039000074B20469847074B4000013858602046DD
:1003A00010BD0324FBE700BF81400100ED440100C4
:1003B000354501003C0A002008B5044B984718B1A8
:1003C000022814BF0120032008BD00BF390301002B
:1003D0002DE9F0471E460746154B002014460D46F2
:1003E000984726444200134B511EB24259601DD318
:1003F000DFF84480DFF84490DFF844A0A64201D142
:10040000002005E0012221463846C04710B10120F6
:10041000BDE8F08701212846C8470028F7D1D0471A
:1004200005F5007501340028E8D0F0E70420EFE777
:10043000354501003C0A0020B14501006546010038
:1004400095460100981838B50D4611460D4A526878
:100450000132904213D89CB222460B4B00209847A1
:1004600008B1012038BD094B21462846984700288D
:10047000F7D1074B9847003818BF0120F2E7042056
:10048000F0E700BF3C0A0020F94601008D4701005B
:10049000BD47010010B51446032916D8DFE801F066
:1004A0000F060C0201231360002010BD084B984773
:1004B000400001382060F7E700201070F5E7054B99
:1004C0009847002818BF0320EFE70420EDE700BF9E
:1004D00035450100390301001FB50F4B68469847A9
:1004E0009DF803309DF802001B0443EA40539DF839
:1004F000040043EAC0239DF8050043EA40139DF839
:10050000060043EA50039DF80100143043EA4060BE
:1005100005B05DF804FB00BF299901000068704731
:1005200003460068596870470B0A017043700B0C52
:10053000090E8370C1707047110A02704170110C6E
:10054000120EC2701A0A037142711A0C1B0E8170CE
:100550008271C3717047024400F8011B9042FBD1C5
:10056000704710B5024410F8013B11F8014B90425E
:10057000A3EB040301D0002BF5D0184610BDC36ACD
:100580000239023B8B4283BF4389006C01FB0300AD
:100590000020704738B519460368046D550A45EACE
:1005A000C1505A89074D0023490AA847043402461E
:1005B000206830B1824202D3121A0834F8E760682A
:1005C000104438BDB1E90100C2F307238A76CB7627
:1005D0000378032B01BF120C0A75120A4A75704783
:1005E00000F10B010022D30143EA520310F8012B62
:1005F00052FA83F38842DAB2F5D11046704710B54B
:10060000417804460131002049010246022A1DBFFB
:10061000A35C03EBC0339BB2032218BF03EB500370
:1006200002F1010218BF98B29142EFD810BD00004C
:10063000036870B503B31C4614F8012B1F2A28D990
:100640003A2AF9D11A78A2F13001092917D9124DA5
:1006500015F8012B13F8011BA2F16106192E98BFA2
:10066000203AA1F1610698BFD2B2192E9CBF203961
:10067000C9B262B19142EBD04FF0FF3006E0991C55
:100680008C42E4D1302AF7D10460002070BD9C4236
:10069000F9E7024B1878F9E710460200440A0020F7
:1006A00038B50D46044618B9092000232B6038BD23
:1006B0000368002BF8D01A78002AF5D08188DA88F0
:1006C0009142F1D15878034B984710F00100EBD1DB
:1006D0002368EBE7B903010038B50568044615F84F
:1006E000010B20B1044B40F25231984708B125600C
:1006F00038BD4FF0FF30FBE72931010070B50C4EDB
:100700000546002435F8020B08B9204670BDB047F5
:10071000630803EBC433C2B212FA83F39AB2C0F394
:10072000072303EB520303EBC2339CB2EAE700BF9B
:100730005131010001380A4411F8013B00F8013F32
:100740009142F9D17047000073B5C37804461BB9D4
:100750000025284602B070BD00F14C01826C0C4EA1
:10076000407801910123B047054678B9A36BE0704A
:10077000A06C226BC31A9342EAD2A3780199022B90
:10078000E6D1024401236078B047E2E70125E0E7C3
:1007900045040100836C8B4270B505460C4610D0B1
:1007A000094B984760B922466878084E012305F145
:1007B0004C01B04700281CBF4FF0FF340120AC644F
:1007C00070BD0020FCE700BF49070100D103010014
:1007D00002392DE9F84F466CDFF870B001F00704DC
:1007E0004FF0010A0AFA04F405461746984606EB4C
:1007F0001136C1F3C809E4B2314628460136D8475C
:1008000018B10120BDE8F88F994605EB090292F86E
:100810004C30234214BF01210021414514D06340D4
:10082000013F82F84C3085F803A0EBD0640014F04F
:10083000FF04EAD109F10103B3F5007F4FF0010491
:100840004FF00009E0D1D7E70220DBE79507010070
:1008500001292DE9F04102460C4640F28D800668E0
:10086000F36A8B4240F288803378013B032B00F21D
:100870008380DFE803F0022A394CB16BDFF8048192
:1008800004EB540501EB55213046C04718B14FF039
:10089000FF30BDE8F0816F1CB16BC5F3080535442E
:1008A00001EB5721304695F84C50C0470028EED157
:1008B000C7F308073E44E30796F84C0045EA0020DA
:1008C0004CBF0009C0F30B00E3E7B16B2D4B01EB0C
:1008D0001421304698470028D9D1640004F4FF74ED
:1008E0002644B6F84C00D4E7B16B264B01EBD4118B
:1008F000304698470028CAD1A40006F14C0004F401
:10090000FE74214B2044984720F07040C1E7D0E9A5
:10091000043053EA0001D57901D0916801B95DBB7B
:100920009168022DA4EB01010DD1013B40F1FF3094
:100930005B0A728943EAC053B3FBF2F399421BD8B6
:100940001CD0601CA5E7032D02D193698B42F8D817
:10095000D3699BB9B16B0B4B01EBD411304698476F
:10096000002894D1A0004C3600F4FE70064B3044B1
:10097000984720F000408CE701208AE76FF00040A4
:1009800087E700BF950701001D0501002DE9F04133
:1009900006683378042B0CBF4FF080524FF40012DE
:1009A0008A4204460D4602D80220BDE8F081CA06FC
:1009B000FAD182680163D2B9022B13D83389B3EB21
:1009C000551FF1D9F36BA363A36B6263002BEBD0CC
:1009D00003EB55234C36C5F308053544A363E563A3
:1009E0000020E2E7F36BC271002BE7D01A4677894B
:1009F000DFF834807F02BD42114604D2094B3046F5
:100A00009847A063E0E72046C047431C024606D053
:100A10000128C9D9F36A8342C6D9ED1BEBE701204F
:100A2000C3E700BF7F0501005108010038B500236E
:100A3000C3704FF0FF338364184B0446984720BBC4
:100A4000B4F84A224AF655239A4220D11449154D4A
:100A50000B2204F14C00A847D8B194F84C30EB2B92
:100A600003D01833DBB2012B15D80F49032204F150
:100A70008200A84740B10D49052204F19E00A84715
:100A8000002814BF0220002038BD0420FCE703200A
:100A9000FAE70120F8E70220F6E700BF950701001A
:100AA00013460200630501001F46020023460200B0
:100AB00001292DE9F04706460C46174608D9C36AB6
:100AC0008B4205D90378022B62D003D8012B22D0A8
:100AD000022552E0033B012BFAD8816B364B01EB28
:100AE000D41198470546002847D1A40006F14C03CD
:100AF00004F4FE741C443378042B07D02F4B20469B
:100B0000984727F0704700F0704007432C4B394658
:100B1000204698472FE001EB5108816BDFF8989051
:100B200001EB5821C8474A46054630BB06F14C093F
:100B300008F1010AC8F3080814F001041FBF19F8EE
:100B4000083003F00F013B0103F0F00314BF0B4327
:100B5000FBB209F80830B16B0123F37001EB5A21A5
:100B600030469047054640B9CAF3080A44B1C7F376
:100B7000071709F80A700123F3702846BDE8F087CB
:100B800019F80A30C7F3032723F00F031F43F0E7D8
:100B9000816B094B01EB1421984705460028ECD1E5
:100BA000640006F14C0304F4FF7419191F55C7F3D0
:100BB00007274F70DFE700BF950701001D05010003
:100BC000290501002DE9F041DFF8308004460E468A
:100BD0001746E36913B91846BDE8F081012BA6EB6F
:100BE000030514BFAA1C3A462068691CC0470028A8
:100BF000F2D1E369013BE361EBE700BFB10A010019
:100C000001292DE9F74F056806460C46174603D81B
:100C1000022003B0BDE8F08FEB6A8B42F8D9A2B98D
:100C2000DFF8E890DFF8E0B0A046CA46214630463B
:100C30000194C84701990446B0B92B78042B02D11E
:100C4000002F43D1F7710020E3E72B78042B02D16A
:100C5000C379022BE4D02C4B4FF0FF3239462846A3
:100C600098470028DCD0D4E70128D1D0421C01D11C
:100C70000120CEE72B78042B19D1EA6AAB69023A3E
:100C800093421CD34A1CA2420DD02B78042B09D1CD
:100C9000A2EB080241460023DFF874802846C047D3
:100CA0000028B6D1A046EB6AA342BFD8C5E7002210
:100CB00028460191D84701990028DED0A9E70133E1
:100CC000AB612B7943F001032B71DBE7F37983B937
:100CD000B468BC4202D10223F371B4E72146304626
:100CE000D047012894D9431CC2D001348442F0D0AB
:100CF000A9E7032BA7D1B368BB42A4D8B2691344B8
:100D0000BB42A0D3E7E700BFB10A010051080100D0
:100D1000D1070100F8B5C379032B044607D18168D8
:100D20008369084FCD18A94203D10023E371002045
:100D3000F8BD4E1C20683246B8470028F8D131462D
:100D4000F1E700BFB10A01002DE9F341154B019114
:100D500004469847054610BB0199134BDFF85080B5
:100D60002046984704F14C07A064104B06464FF408
:100D7000007229463846984763899D4206D36089A8
:100D8000401B18BF012002B0BDE8F081607801234C
:100D900072193946C0470028F1D10135ECE701202E
:100DA000F1E700BF490701007F0501005705010079
:100DB00045040100F8B5244B044698470546002831
:100DC00041D12378032B36D12779012F33D104F178
:100DD0004C0601461D4B30464FF400729847552390
:100DE00084F84A32AA2384F84B32522341227221DA
:100DF00084F84C3084F84D30612384F84E3084F808
:100E0000333284F84F2084F8301284F8311284F899
:100E10003222A1690E4A04F50D709047616904F50C
:100E20000E709047626B607801323146A264094EC1
:100E30003B46B047257100226078074B1146984722
:100E4000003818BF0120F8BD49070100570501000F
:100E50002905010045040100950401002DE9F04F2A
:100E600000230B6085B0864B884615469847071EC1
:100E7000C0F2CA81834E06EB87035C68002C00F049
:100E8000C581C8F80040237805F0FE056BB17E4BA4
:100E900060789847C30708D41DB110F0040500D04E
:100EA0000A25284605B0BDE8F08FF8B2002323706C
:100EB0006070764B9847C70700F1AA810DB14007D3
:100EC000EED4734F00212046B847022840F09780A7
:100ED000E846704D04F2122304F2522142461846AD
:100EE000A84710338B4242F8040BF8D1002558F87C
:100EF000041B00297BD02046B847012878D8012858
:100F0000A56C40F0D38004F1570304F18C0113F871
:100F1000012B002A7AD18B42F9D1B4F8B430B3F561
:100F2000807F73D194F8B830092B6FD15A4B04F1FC
:100F3000940098474FF0FF3315EB000941F1000191
:100F40004B4572EB010361D3524B04F1A00098476B
:100F500094F8BA702063012FA770984656D194F880
:100F6000B9309F40BBB26381002B4FD004F1A80081
:100F7000C0474A4B9842834648D8831CE362656366
:100F800004F1A400C04700EB050AC4F840A004F136
:100F90009C00C047BFB20BFB07F313EB0A032844C6
:100FA000A06342EB0200994571EB00032ED304F1DC
:100FB000AC00C047DFF8EC90DFF8ECA0E063174628
:100FC000154657B96389AB4220D9E16B2046C84723
:100FD00041192046D047A0B90135E31993F84C30A8
:100FE000812B15D007F12000C0F30807E9E70320A3
:100FF0000135042D7FF47BAF042807D101E00428DC
:1010000001D101254DE701287FF679AF0D2548E78D
:1010100007F1140004F14C052844C0470128074695
:10102000F4D9E36A8342F1D96189226CDFF87890C0
:10103000831E03FB01236364A16B204601EBD711E0
:10104000C8470028DDD107F07F0005EB8000C047CE
:10105000411C03D00137B842EED0D7E7C4E9050000
:1010600004273389277001339BB23381E3800C4B13
:10107000E360002503F500732361E56111E700BF1C
:1010800031060100440A0020B90301008103010078
:101090002D0A01001D05010021050100FDFFFF7F54
:1010A0004E0A00207F05010095070100B4F8573073
:1010B000B3F5007FAAD1B4F8621021B9594B04F1FD
:1010C00070009847014694F85C80216308F1FF3373
:1010D000012B84F8028099D894F859706781002F09
:1010E00094D07B1E3B4291D1B4F85D3023811A0726
:1010F0008CD1B4F85F0018B94A4A04F16C009047EB
:10110000B4F85AC0BCF1000F80D001FB08F80CEB1A
:10111000131EC6447045FFF479AFA0EB0E02BA422D
:10112000B2FBF7F0FFF472AF3F4A90423FF66EAF6A
:101130004FF6F57290426DD90327821CAE440CEB3A
:101140000500032FE2626563A063C4F840E04AD162
:10115000B4F8760003437FF459AF324B04F17800C2
:1011600098479300E06303F2FF13B1EB532FFFF4B2
:101170004DAF4FF0FF33C4E90533032F4FF0800329
:1011800023717FF46EAFB4F87C30012B7FF469AF2C
:10119000264B691C2046984700287FF462AFB4F8BC
:1011A0004A2220714AF655239A427FF45AAF1D4BCA
:1011B0001F4A04F14C00984790427FF452AF04F567
:1011C0000C70984702F1FF5202F500522032904213
:1011D0007FF447AF04F50D709847A06104F50E70D9
:1011E000984760613DE7002B3FF410AF022F4FEAB4
:1011F000420318BF9B18404418BF02F00102E0638D
:1012000018BF02EB5303AEE70B254AE60C2548E670
:10121000032546E640F6F577B8428CBF0227012742
:101220008BE700BF1D050100F5FFFF0F95070100CB
:10123000525261412DE9F04705680746884649B991
:101240006E69C6B1EB6AB34298BF0126AB69A3B918
:10125000002405E0704B98470128044603D8012478
:101260002046BDE8F087421C00F0D280EB6A834242
:10127000F6D84646EAE70126E8E72A78EB6A042A28
:1012800040F08380A6F1020A023B9A4528BF4FF046
:10129000000A624CD146696C284601EB1931A0471F
:1012A00000283DD109F0070201239340EA6AC9F3FF
:1012B000C801DBB2A2F1020C6A18484692F84C2031
:1012C00009F10109E14502EA030235BF5B00002391
:1012D000DBB2994628BF4FF40071BAB9841C631E73
:1012E0000333BDD80123DFF840911A462146284632
:1012F000C8470228B3D0012800F08A80B8F1000F57
:1013000013D10223FB710028A9D130E0CA450AD0CD
:10131000002BD1D10131B1F5007FBCD20123CBE745
:101320004FF0FF34DBE70024D9E7FB79022B07D12C
:10133000731CA342E7D0BB68F31ABB610323FB71A4
:1013400008F10102A242FB6905D113B10133FB612F
:10135000D9E70223FBE70BB90123FB61304B22469F
:1013600041463846984700284FD10123FB61EA6A7D
:10137000AB696C61023A93429CBF03F1FF33AB61EE
:101380002B7943F001032B716AE7464514D1741C95
:101390009C4228BF022421461F4B3846984701280B
:1013A0003FF45DAF431C33D0E8B16B69012B03D927
:1013B000EA6A934238BF1E46DFF85C903446EB6A17
:1013C0000134A34203D8012E7FF642AF0224214606
:1013D0003846C84748B101283FF441AF013017D023
:1013E000B442ECD134E7002CE6D00E4E4FF0FF3281
:1013F00021462846B04740B9B8F1000FB7D0224681
:1014000041462846B0470028B1D001287FF427AFD5
:101410004FF0FF3424E700BF510801009507010099
:10142000C50B0100B10A0100D10701002DE9F84305
:101430000668076B3378042B0CBF4FF080534FF4D2
:1014400000132037BB429CBF00238363836B044699
:10145000894673B1C7F30808B8F1000F3CD1416B5E
:101460000133836339B93389B3EB571F34D8002371
:10147000A36304200AE07389013B13EA57232BD1AD
:10148000194B98470128054602D80220BDE8F88389
:10149000421C01D10120F9E7F36A834216D8B9F161
:1014A000000FE4D0616B114B204698470546C8B148
:1014B0000128EAD0431CEDD001460D4B3046984739
:1014C0000028E7D1E37943F00403E371094B656336
:1014D000294630469847A0634C3646442763E66366
:1014E0000020D3E70720D1E75108010035120100A1
:1014F000490D01007F0501002DE9F84F0546006800
:10150000324FA96B0669B847B946044620B9E96B62
:101510000B78852B03D002242046BDE8F88FDFF836
:10152000B4A020223046D047777801377F01A7F159
:101530006003B3F5007FEED82146DFF89CB0284663
:10154000D84704280446E6D00028E5D1A96B2868CE
:10155000C84704460028DFD1E96B0B78C02BDAD1ED
:101560002022B018D04796F823300F222C33B3FB3B
:10157000F2F3B7EB431FCED34FF0400800212846CB
:10158000D84704280446C6D00028C5D1A96B2868CE
:10159000C84704460028BFD1E96B0B78C12BBAD1EC
:1015A000B8F5187F03D2202206EB0800D04708F1D7
:1015B00020084745E2D8B8F5187FADD8044B30462F
:1015C000984773888342A7D0A5E700BF950701001D
:1015D000FF050100350701002D1401000B6810B54F
:1015E00003600B6A83604B6AC371002223F0FF0320
:1015F000896AC261C0E90432C164054B0446984758
:1016000020B92046034BBDE81040184710BD00BF6D
:101610008D090100F91401002DE9F84FFF27D0F8DA
:101620000080DFF830A1054689463E4604244FF687
:10163000FF7BA96B09B994B171E04046D0470446DD
:1016400000286CD1E86B0378002B7BD098F8002041
:10165000042A19D1B9F1000F05D0832B58D10024E9
:101660002046BDE8F88F852B52D12B6BEB642846C2
:10167000354B98470446002851D1D8F810301B79D3
:1016800003F03F03AB71EBE7C27AE52B02F03F02B8
:10169000AA7149D02E2B47D022F02001A1F1080CCD
:1016A000DCF1000141EB0C0149453DD10F2A40D14D
:1016B0005C0637D52A6B477BEA6403F0BF03427BA5
:1016C000BA4231D1418B79BB0278D8F80C40DFF8AF
:1016D00088C022F040020D26013A724301261CF810
:1016E00001EB30F80EE00EB3FF2A1DD824F812E00B
:1016F0007646013201310D29F1D10178490605D52F
:1017000026B1FF2A10D8002124F81210013BDEB2C6
:101710000E4B0021284698470446002889D0002314
:10172000AB639DE79E42CAD0FF26F1E7DE45E1D0DC
:10173000FAE71EB9064B9847B84290D04FF0FF33F6
:10174000EB648DE70424EAE7F91401002D1401008D
:10175000E105010095070100394602002DE9F84333
:101760000D46144B0668002104469847A0B9DFF8DF
:101770004C80114F8146A16B3046C04760B932782A
:10178000E36B042A1B780BD11B060DD58146012182
:101790002046B8470028EED0042808BF072007E0FD
:1017A000E52B01D0002BF1D109F10109A945EED1BA
:1017B000BDE8F8838D0901002D1401009507010093
:1017C00003682DE9F0471E69174BDFF86480DFF8E6
:1017D0006490DFF864A0054630469847030AB0706D
:1017E000F370E96C114B77782846984704462CB182
:1017F000022C28BF0224E0B2BDE8F087A96B28685C
:10180000C04704460028F3D12022E86B3146C84780
:101810002B680122DA70002FEAD021462846D047F3
:1018200020360446013FE2E7FF0501008D09010073
:1018300095070100350701002D1401002DE9F04F37
:10184000674BD0F8009085B0002104469847804649
:10185000002840F0BE8099F80030042B32D1D9F82E
:101860000C00604BDFF888A1984707465E4B0021CB
:101870002046984708B18046ABE0D9F810309A8CE2
:10188000BA42F3D193F823B0054640265D4506D110
:10189000D9F80C3033F81530002BE7D199E0F10678
:1018A000D9F8103008BF0236985BD047D9F80C1031
:1018B000009031F81500D047009B8342D6D1023604
:1018C0000135E3E74FF0FF334FF0FF0AE36455467D
:1018D000A16B464B484698470028CCD1E66B377839
:1018E000002F7AD0F27AE52F02F03F03A37103D0E4
:1018F000120705D50F2B05D04FF0FF33E3644FE0FF
:101900000F2B54D194F84B305B0640D4780645D564
:10191000236B96F80DA0E36407F0BF07737B534574
:101920003ED1738B002B3BD13578D9F80C30009326
:1019300005F03F05013D0D23DFF8C8B05D430122EE
:101940001BF8013BF35A002A2CD0FF2D28D818464B
:101950000393274B9847009A0290691C32F81500B0
:10196000234B01919847029A824219D1039B019916
:101970001A460D461F4B9B45E2D13378590604D5D4
:101980001AB1009B33F8153053B97D1EEDB21A4BD6
:1019900000212046984700289AD06CE7BD42BDD070
:1019A000FF25F4E74FF6FF718B42E3D0F8E725B946
:1019B000124B3046984750450BD094F84B30DB071C
:1019C0009AD40F4B0B2204F140013046984700286F
:1019D00092D1404605B0BDE8F08F4FF00408F8E71B
:1019E0008D090100FD06010019160100950701008F
:1019F00051310100464602002D140100E1050100AD
:101A000063050100394602002DE9F04F90F84B5074
:101A100015F0A00599B0044640F068810668F268A8
:101A200032F81530002B49D13378042B40F08580F3
:101A30000F230E352046B5FBF3F5AE4BA91C984796
:101A40008146002875D1236B0135A3EB4515E37959
:101A5000E5645A0734D523F00403E3712046A64B0E
:101A6000984748BB616BA54B4FF0FF322046984723
:101A700010BBA36823B3A24B214604A89847D8B94A
:101A8000D4E9042370899F4D4FF40071E0FB0123DA
:101A90003069C4E904233830A8473069D4E9042305
:101AA0002830A847E379326943F0010382F82130F6
:101AB00004A8954B984718B181463AE00135AFE745
:101AC000D6E903540021914B4022204698478523B4
:101AD00023700122C02384F820300E4640234FF0AB
:101AE000C10C8E4604EB02085F1C04F803C004F826
:101AF00007E0F0B2023322B135F811200AB101310A
:101B0000C9B2170AE25408F803700233DF06F2D1B3
:101B100035F811700136002FE6D1831C637084F80C
:101B200023107B4B2846984784F82400000A84F849
:101B30002500484619B0BDE8F08F04F14007DFF8F2
:101B4000E8B10C22394604A8D8479DF81B30DB07C2
:101B500040F1F7804023DFF8D48184F84B304FF018
:101B6000010A0B2204A93846D6F80C90D847BAF1DE
:101B7000050F58D9A9F10201534631F8022F002A66
:101B800042D10DF10F00072203F00F0C0CF13001D0
:101B9000392988BF0CF137010F2B00F8011902F128
:101BA000FF324FEA131140D802F160036B447E21EB
:101BB00003F8581C394600239A4205D011F8010B4E
:101BC000202803F1010C32D104F13F00072A9CBF09
:101BD00002F16001694403F1010396BF11F8581C3A
:101BE00020210132072BC154F0D94A4B2046984797
:101BF0008146002840F09E800AF1010ABAF1640F84
:101C0000AFD14FF0070994E7102002F0010C0CEB64
:101C1000430313F4803F18BF83EA080301384FEAF7
:101C20005202F2D1A9E75346ABE70B46ACE7634655
:101C3000C2E7216B384BA1EB4511204698478146FE
:101C400000287FF476AF354B384698474FF6FF783B
:101C50000190A16B324B30469847814600287FF4B3
:101C600068AFE36B019AD6F80CE05A73E9B20F2221
:101C70004FF00D0CDA724A1E0CFB02F2DFF8B0A036
:101C800018739876D87600928446404518BF009A1B
:101C90001AF8019B18BF3EF8120003F809001CBF98
:101CA000013200920CF1010C03EB09024FEA1029FA
:101CB000002808BF4046BCF10D0F82F80190E4D126
:101CC000404503D0009A3EF812200AB941F0400185
:101CD00019700123F3700021124B2046984781466A
:101CE00000287FF426AF013DB3D140E04FF0060954
:101CF0001FE700BF5D170100150D0100C50B0100B6
:101D0000DD15010039050100C1170100570501006B
:101D1000FD0601003D1801008D090100E1050100EB
:101D2000950701002D140100350701002110010065
:101D30003946020004287FF4FCAE9DF81B3084F87D
:101D40004B309DF81B309B0745BF0C350D210125FD
:101D5000B5FBF1F548BF0135124B2946204698479F
:101D6000814600287FF4E5AE013D7FF462AFA16BB0
:101D70000D4B30469847814600287FF4DAAE0B4B76
:101D800001462022E06B98470B22E06B3946D8478A
:101D900094F84B30E26B03F0180313730123F370D4
:101DA000C7E600BF5D170100950701005705010058
:101DB00010B50A4B044634309847094B886004F14B
:101DC00038000A469847C2E9040194F8213003F02C
:101DD0000203D3710023D36110BD00BF1D050100B4
:101DE0002105010003284B8B04BF8A8A43EA024382
:101DF000184670472DE9F04F0B78D0F800B02F2B24
:101E000099B004468A4601D05C2B0AD15246137819
:101E10002F2B924602F10102F9D05C2BF7D0002360
:101E200001E0DBF81C30A3600023E3619BF8003085
:101E3000042B1FD1A368EBB1DBF820302362DBF861
:101E400024306362DBF82830A3622146934B04A858
:101E500098470346002840F07381DBF81020904932
:101E600002F138008847C4E9040392F8213003F0F6
:101E70000203E3719AF800301F2B00F237818023B0
:101E800084F84B30874B0021204619B0BDE8F04F55
:101E90001847FE2E00F2538129F8163001362BE147
:101EA00001330493049B1A782F2AF9D05C2AF7D0C7
:101EB0000025012EDDF810A02FD1B9F800302E2B0F
:101EC00031D1002329F8163004F140029E428CBF24
:101ED0002E21202101330B2B02F8011BF6D145F0F6
:101EE0002005714B84F84B502046984794F84B30AE
:101EF000002800F0E380042840F02281990603F0D6
:101F0000040240F1C680002A00F0F080802384F8AB
:101F10004B30002014E10425CBE7022E03D1B9F8A1
:101F200002302E2BC9D0A9F1020296BB002229F85B
:101F30001620002E00F0038139F8121020291346D4
:101F400002F10102F8D00BB92E2901D145F00305A9
:101F5000A9F1020131F816202E2A01D0013EF9D153
:101F6000524F0B22202104F140004FF00008B847E7
:101F70000822474639F81300591C0191F0B1202876
:101F800003D02E280DD1B14210D045F00305019B9E
:101F9000F0E732F81630202B01D02E2BC6D1013EAF
:101FA000C3E7904505D2019BB34235D10B2A2CD112
:101FB00001E00B2A23D145F003050B2294F84030B1
:101FC000E52B04BF052384F84030082A04BFBF0076
:101FD000FFB207F00C030C2B03D007F00303032B15
:101FE00001D145F00205AB073FF57BAFFE0748BFC7
:101FF00045F01005780748BF45F0080571E7019BDB
:10200000B34202D045F00305D8D8BF00FFB2019615
:102010000B224FF00808BAE77F2813D945F00203D6
:10202000029340F25231224B0392984710F0800FF6
:10203000DDE9023212D01F4900F07F000844407BE6
:102040001D4638B11C4911F8013B002B00F0878078
:102050008342F8D145F003055F2010E0FF28EFD957
:10206000511E884503D345F0030590468FE704EBE6
:102070000801050A81F8405008F101081D4604EBEB
:10208000080308F1010883F8400080E747F00207E1
:10209000F5E7002A08BF052052E000BFDD1501006A
:1020A0001D0501008D0901003D18010057050100C3
:1020B000E930010039460200324602005A073FD497
:1020C000A379DB0649D59BF8000004283BD1A3681F
:1020D00023622369E279DBF8100023F0FF03134346
:1020E0006362E36CA3622146244B98472368CDF8D2
:1020F00010A0D3F80C900026214B04A89847421C4E
:102100001DD0B0F5803F24BF030C29F8163083B2F0
:1021100028BF01361F2B7FF6FEAE2F2B3FF4C2AE39
:102120005C2B3FF4BFAE7F2B3FF6B3AE154918468C
:1021300011F8012B002A3FF4ACAE8242F8D1062000
:1021400019B0BDE8F08F216B0BF14C03C1F308010E
:1021500019440D4B9847A060C8E70520F0E7A0F1AF
:1021600041039BB2192B91D9A0F161039BB2192BAA
:102170009EBF203847F0010780B280E7B11D010003
:10218000D906010029460200E51D01001FB5114BCB
:102190000391CDE9001003A814469847002817DBE7
:1021A0000D4B810003EB800042680AB100201070E3
:1021B000019A0AB1002010700B445A602CB1074BF1
:1021C000002201A9684698470446204604B010BD85
:1021D0000B24FAE731060100440A00205D0E0100DD
:1021E0002DE9F04399B0164601910446002800F00D
:1021F0001E8102F03F058F4B2A4603A901A898478C
:10220000002840F00C81039B049301998A4B04A899
:102210009847024620B99DF95B30002BB8BF0622D3
:1022200016F01C0F00F0B380002A43D0042A3ED1E0
:10223000824B04A898470246002838D145F008058B
:10224000039BDFF8248218787D4F042870D1186929
:10225000236021467B4B9847039B18697A4B0021EA
:102260001E2202309847039A10691A222630984796
:10227000039B1A69202111711E69C0470836014667
:102280003046B847039B1B69012283F8212004A82C
:102290006E4B9847024650B9A168A9B16C4B2046D5
:1022A0009847A3680399013B02464B6162B1002342
:1022B000236039E09DF8163013F0110F71D17207C9
:1022C00000F1AF803307BBD4039A2907936C1399AD
:1022D000A364E164107848BF45F04005042862D14A
:1022E000069B2362089B9DF81710106923F0FF03DB
:1022F0000B436362179BA3622146524B9847039B93
:102300002360DA88A2804FF0000800200021AA068E
:10231000C4E90E01C4F8508084F8305084F831804C
:10232000C4F844804AD40022104619B0BDE8F083B6
:10233000DDF84C90474B494698470646C047014652
:1023400009F10E00B847139B03982022DA72139903
:10235000414B00229847139B00221A775A779A77AD
:10236000DA77039B0121D970002EADD09F6C384BDA
:10237000314604A898470246002898D1374B039865
:1023800039469847039B013E02465E618EE7002A6C
:102390008DD19DF81630DF0645D4B60794D5D80701
:1023A00092D5072283E72B4B98472D4BA06001F174
:1023B0001C009847002320616361A0E7D4E904561C
:1023C00055EA0602AFD05F89A168DFF8A090C4E9A2
:1023D0000E567F02AF4278EB060312D3002221642F
:1023E000002A7FF464AFC5F30803002B9BD0039849
:1023F0001C4B9847C8B16D0A45EAC655054465644B
:1024000092E72046C847ED1B66F100060128014609
:1024100003D9431CDED10122E1E70222DFE70246B5
:1024200045E7082243E7042241E702223FE7092269
:102430007AE700BF5D0E0100F51D0100091A0100D9
:1024400029050100B11D010057050100C117010058
:10245000010C0100E51D0100C905010095070100FF
:102460001D0501007F050100D9040100510801008C
:102470002DE9F04F994685B00023C9F80030884611
:10248000534B03A9044616469847054668BB94F883
:10249000315055BB94F8303013F00103009300F035
:1024A0009580D4E90432D4E90E011B1A62EB0102D3
:1024B000B34272F1000200D21E46B6B1D4E90E2337
:1024C000C2F30801002968D103994F89510A013FDD
:1024D00041EAC3510F401FD152EA030109D1A0685C
:1024E000012811D8022584F83150284605B0BDE8EE
:1024F000F08F216D19B1374920468847F0E7216CEC
:10250000354B20469847EBE7431C04D10123009D3F
:1025100084F83130E9E72064DDF80CA0216C2F4B02
:10252000504698470028DDD0B6F5007F07EB000243
:1025300032D3BAF80A10019207EB562088424FEACC
:10254000562B88BFA1EB070B9AF80100244F5B467E
:102550004146B8470028D9D10399C87858B1886C4A
:10256000019A801A584506D21E4B4FF400724C3126
:1025700008EB402098474FEA4B27D9F800303B44FE
:10258000C9F80030D4E90E32DB1942F10002C4E987
:102590000E32F61BB84490E76264A76B616C039837
:1025A000114BC7F30807C7F50077B74228BF374676
:1025B00098470028AAD10399A36B4C31C3F30803B1
:1025C00019443A46074B40469847D6E707258CE71B
:1025D000A106010095050100510801007F050100D9
:1025E000D103010035070100950701002DE9F04FE7
:1025F0009A4685B00023CAF8003089466C4B03A97F
:102600000446164698470546002839D194F83150BB
:10261000002D35D194F830309A0740F1C780039BE4
:102620001B78042B03D0A36BF34200D3DE430EB31D
:10263000D4E90E23C2F30801002940F09A800399DF
:10264000B1F80AB0510A0BF1FF3B41EAC3511BEA52
:10265000010B29D152EA030106D1A068B0B90146A5
:10266000544B2046984704E0216D69B152492046F9
:10267000884758B994F8303043F0400384F830303C
:10268000284605B0BDE8F08F216CE9E7012803D1A9
:10269000022584F83150F3E7431C01D10125F8E706
:1026A000A368206403B9A0600398636C826C9A42AB
:1026B00003D1424B98470028F0D1039F216C404B37
:1026C000384698470028E3D0B6F5007F0BEB0008AA
:1026D0003DD37A8978783B4F0BEB562191424FEAF4
:1026E0005623494688BFA2EB0B0342460193B847E5
:1026F00007460028D2D10398019B816CA1EB080109
:10270000994209D2304B4FF4007209EB41214C3011
:102710009847039A019BD7705F02DAF800303B4478
:10272000CAF80030D4E90E32D4E90401FB1842F1B2
:1027300000029842A6EB0706B94471EB02073CBFC2
:1027400018461146C4E90E32C4E904016FE7A26BD2
:102750002169E06B63698A4270EB030307D3174B6F
:1027600038469847002899D1039BC3F84880C4F89D
:102770004480A36B616C0398C3F30803C3F5007333
:10278000B34228BF33461F46104B9847002885D1D7
:102790000398A36B4C30C3F308033A4618444946E8
:1027A000094B9847039B0122DA70B6E7072567E7D4
:1027B000A10601003512010095050100490701003D
:1027C0007F05010045040100350701009507010060
:1027D0004368002BF7B5044614DB5D1C03443B2D16
:1027E000866819730BDD01AB2A4600F10C01064F18
:1027F0000068B847019B5D1B18BF4FF0FF350136DD
:102800006560A66003B0F0BDED25010037B54268F4
:10281000002A044603DA4FF0FF3003B030BD00F168
:102820000C01064D006801ABA8470028F3D162688F
:10283000019B9A42EFD1A068EFE700BFED250100B0
:102840002DE9F04196B0434B01A90546984704464F
:1028500000285CD195F8300010F0400457D03E4B72
:102860009847074601980378042B54D13B4B2846E0
:102870009847044600284AD1296C394B4FF0FF3263
:10288000284698470446002841D1364B294602A8DD
:102890009847044600283AD1019B334E1969DFF866
:1028A000DC800A7942F020020A71EA79196942F063
:1028B000010281F821201869A9683430B047019BD2
:1028C0001869D5E904233830C047019B1869D5E958
:1028D00004232830C047019B186939460C30B047A3
:1028E000019B1A6954751B6902A81C745C749C7462
:1028F000DC741E4B9847044648B901981C4B984716
:1029000095F8303023F04003044685F830302046F7
:1029100016B0BDE8F081A96C164B98470446002814
:10292000F5D1EE6CF37A43F02003F372AA68124BF0
:1029300028683146984729690B4A06F11C009047E0
:1029400006F11600394690470198B4740123F474D7
:10295000C370D3E7A1060100D9040100150D0100E1
:10296000C50B0100DD15010029050100C11701009B
:10297000B50D010095070100C905010039050100E9
:1029800013B5064B0446984728B9054B01A92046C4
:10299000984700B9206002B010BD00BF4128010077
:1029A000A10601002DE9F04F91B0434B01908846FC
:1029B000154603A9002201A89847044640B9039B85
:1029C0002B60DF6A9A69BE1EB24205D8C8F80020A3
:1029D000204611B0BDE8F08F1A78012A1AD1374F7E
:1029E000049302260546314604A8B847431C5CD030
:1029F00001285CD000B90135039BDB6A0136B34284
:102A0000F1D8039BC8F800501A799D6142F0010289
:102A10001A71DDE7042A22D1596CDFF8A490074629
:102A2000054637B9039801F1010AC847002840D18B
:102A30005146039B3B44A6F1080293F84C3046B143
:102A4000D80706F1FF3658BF0135B2424FEA5303AB
:102A5000F5D10137C7F30807002EE2D1D1E7996B12
:102A6000DFF85C90DFF85CA0064605462EB90398B7
:102A700001F1010BC847E0B95946039A02F14C0332
:102A80001278022A03EB060008D19B5B03B90135DB
:102A90000236013FC6F30806E8D1B2E7D04730F06E
:102AA000704308BF01350436F3E70124A9E7022487
:102AB000A7E70446A5E700BF5D0E0100510801002D
:102AC000950701001D050100F0B5A5B0584B019018
:102AD000022203A901A898470446002840F08780F5
:102AE000039B10930199534B10A898470446002864
:102AF00000F09A8004287AD19DF88B1011F0200103
:102B000040F09480039B049304A84B4B98470546E0
:102B100000286FD001286FD0431C5C425C41474BBA
:102B200098470646002C79D10398454B294698478B
:102B30000446002872D103980378042B26D0414B19
:102B4000414C0B2220214C30984703982E2710230C
:102B500080F8573080F84C703C4B314662309847D3
:102B600003982A4600F14C01A0470398384B00F126
:102B70004C0120226C3098470398129A80F86D70AF
:102B800000F16C01A047039B0122DA70314B10A8C1
:102B900098470446002841D1039B1A78042A2B4AFF
:102BA0002CD1186931460C309047039B186929468F
:102BB00034309047039B598918694902383090474F
:102BC000039B59891869490228309047039B1A6969
:102BD000032182F821101B6910221A7110A81E4BC4
:102BE0009847044618B903981C4B9847044620465A
:102BF00025B0F0BD072492E7022490E71F983146E4
:102C000016309047104B1F9903982A4698471F9BF0
:102C10001022DA72039B0122DA70E4E7104B0022E3
:102C2000294604A89847E2E70824E0E70624DEE7FF
:102C30005D0E0100F51D010035120100D9040100EF
:102C4000490D010057050100C905010029050100D2
:102C500035070100091A0100C1170100B50D010077
:102C6000010C01002DE9F0419EB06C4B0190022255
:102C700003A901A898470546002832D1039B684E56
:102C80001B78042B48D10146162204A8B0472C46D5
:102C9000644D019B1B781F2B1BD8039B0A930021BB
:102CA000614B0C910AA898470546D0B95F4B0121AA
:102CB0000AA89847002869D1039B19981B78042B10
:102CC00057D144701998162204A90230584B9847DE
:102CD00055E001A8A847B0F5803F1AD3431C04D1A2
:102CE000062528461EB0BDE8F081092CF8D804ABB3
:102CF00004A903EB4402030C01F814301B0A5370BF
:102D000001344C4A12F8013B002B63D09842F9D1B0
:102D1000E6E70028F5D1E3E70B22202104A8B0471D
:102D20002C46454F3F4DDFF82081019B1B781F2B20
:102D30000CD89DF81030E52BD2D0002CADD0631EFE
:102D400004AAD25C202AA8D11C46F6E701A8A8470D
:102D5000B0F5803FC4D2B84740F25231C047002896
:102D6000BED0364A12F8013B002B51D09842F9D11F
:102D7000B6E714B10B2204A9A8E7E5230370039872
:102D80000123C3702E4B98470546AAE70428FBD1C0
:102D9000002CA6D02B4B01210AA8984705460028F5
:102DA0009FD1202201461998B047039B199A1B789E
:102DB000042B1F4B08D183211170199A5470199854
:102DC000162204A9023082E70821D17219980B2239
:102DD00004A97CE70A2C83D804AB04AA03EB4403C0
:102DE00002F81400C0F307205870013451E7092C91
:102DF0003FF676AF04F178036B44020A03F8682CBF
:102E0000013404F178036B44013403F8680C8CE757
:102E1000FF28ECD80A2CF4D962E700BF5D0E010050
:102E200057050100D90601008D090100191601009E
:102E300035070100CD46020051310100C6460200AF
:102E4000B50D01005D170100E93001002DE9F743E0
:102E5000DFF84090044690464F1E06460025BD42CE
:102E60000FDA01AB012269464046C847019B012B9E
:102E700007D19DF8003006F8013B0A2B05F101054A
:102E8000EDD100239D4214BF20461846337003B095
:102E9000BDE8F083712401000EB42DE9F04F9CB021
:102EA00025AC054654F8043B8C4E8D4F4C22002136
:102EB00009A8B047099500941978002900F0068107
:102EC000252903D05C1C09A8B847DBE059783029D4
:102ED0002CD19978DC1C01232A293AD1009A111DA2
:102EE0000091166814F8011B01F0DF024C2A04BFA0
:102EF00014F8011B43F00403002900F0E780A1F15E
:102F00006102192A9ABFA1F12002D2B20A46582AB8
:102F1000D9D84E2A20D8432A00F0BB80442A00F09A
:102F2000C080422ACFD14FF0020C33E02D290BBFD5
:102F300099789C1CDC1C002308BF0223CCE700FB13
:102F4000061614F8011B303EA1F13002092AF6D909
:102F5000CAE700260A20F7E7A2F14F000928B2D8F5
:102F600001A555F820F000BF912F0100C72E0100E8
:102F7000C72E0100C72E010031300100C72E01000D
:102F8000A3300100C72E0100C72E01009D300100B3
:102F90004FF0080C0098051D0095442A006804D1E4
:102FA0000028BCBF404243F0080378290DF1040E0D
:102FB0000CBF4FF027084FF007080021F146B0FB87
:102FC000FCFB0CFB1B05EAB2092D88BF424482467C
:102FD00088BFD2B23032D4450EF8012B584601F1E9
:102FE000010502D8202D5FD11F211A0707D505F151
:102FF00070020DEB02052D2205F86C2C8D1C13F0D0
:10300000010F14BF4FF0300A4FF0200A9B07A8466B
:1030100051D5013D09A819F80510B847002DF8D180
:1030200046452FD9514609A8B84708F10108F7E7E6
:10303000009A111DD2F8008000914FF0000918F895
:1030400009204D4609F10109002AF8D199070ED44B
:10305000AA4604E0202109A8B8470AF1010A56450A
:10306000F8D8731BB54288BF002303EB090508F1AC
:10307000FF3801E009A8B84718F8011F0029F9D165
:10308000AE4201D8234617E7202109A8B8470135E9
:10309000F6E7009B1A1D1978009214E74FF0100C08
:1030A00078E74FF00A0C75E7294688E7514609A8EA
:1030B000B84708F101084645F8D8A6EB0508B5421F
:1030C00088BF4FF000086B1C9844A2E7054B09A885
:1030D00098471CB0BDE8F04F03B07047570501009A
:1030E000D12701000D2801007F2810B501D880B23A
:1030F00010BDB0F5803F13D240F2523399420FD148
:103100000849002231F8024B844293B203D103F103
:103110008000C0B2ECE70132802AF3D11346F6E713
:103120000020E5E7D84602007F280DD940F252334F
:10313000994208D1FF2806D800F10040034B80389F
:1031400033F8100070470020704700BFD8460200D7
:10315000B0F5803FF0B523D21F4A02F5F97183B272
:10316000B0F5805F28BF0A46141D34F8042C2146B0
:10317000AAB1934213D334F8025C2E0AEFB252FA8A
:1031800085F5A84222DA082E09D8DFE806F0050AFC
:1031900010121416181A1C00801A34F81030184631
:1031A000F0BD981A00F001001B1A9BB2F7E7103B24
:1031B000FBE7203BF9E7303BF7E71A3BF5E708333D
:1031C000F3E7503BF1E7A3F5E353EEE70434002EB9
:1031D000CBD101EB4702C7E7D8470200EFF31083DA
:1031E000036072B6BFF35F8F7047BFF35F8F0368F2
:1031F00083F3108870470000014B1860014B18479B
:10320000B00E0020653C0100054B10B51C68054B55
:103210009847054B01462046BDE81040184700BFBF
:10322000B00E00209D330100753C0100004B184793
:10323000353B0100C1F3090102F480620A43828335
:1032400010467047004B1847F5340100004B1847F3
:103250003735010010B49DF804400194024CA44697
:103260005DF8044B604700BF41350100004B184733
:1032700019360100004B18471D360100004B184756
:1032800027360100004B184731360100004B184724
:103290004D360100004B184781360100004B18479E
:1032A0008736010030B4BDF808409DF80C50CDE9D8
:1032B0000245024CA44630BC604700BFB536010051
:1032C000004B184785380100004B1847C1380100F2
:1032D000004B1847FD380100004B18470139010029
:1032E00010B5054B9847044618B9044B984720463B
:1032F00010BD6FF00C04FAE7DD33010095330100D7
:1033000008B50830014B9847002008BDE93A010094
:1033100008B50830014B984708BD00BF2B3B0100A2
:10332000044A1168034609B903491160106803444F
:1033300013607047B40E002098F603204FF0FF3062
:1033400070474FF400534B600020704701207047D6
:103350000020704708B50146014B02489847FEE738
:1033600035000200864A020070474FF0FF30704778
:10337000BFF34F8F0549064BCA6802F4E06213435E
:10338000CB60BFF34F8F00BFFDE700BF00ED00E053
:103390000400FA05BFF34F8F30BF7047014B58430D
:1033A000704700BF00770100094B186803691A8A4B
:1033B000D20704D501221A82036843B118471A8A3A
:1033C00092B222B140F25E221A824368F5E770475A
:1033D000B80E0020004B1847A9330100022802D084
:1033E000031F032B0BD8074A0A23507051788842D9
:1033F00003D0013B13F0FF03F8D1002070476FF0BA
:103400000C007047000400400B4A937882B0DBB296
:103410000193019B990705D5084B1B6813B15068B0
:1034200002B01847019BDB0704D5044B5B680BB166
:10343000014AF4E702B0704700000241BC0E0020D0
:1034400070B5140204F47C54D50541EA040103D597
:10345000140529D541F0010190F8044255044CBFF0
:1034600044F0100404F0EF0480F8044283608BB24F
:10347000C38102F4805440F27F2540F25D26438EE2
:103480009BB2C4B1334218D090F82F3043F00203FE
:1034900080F82F30438E9BB26FEA93236FEA832329
:1034A00043860023184670BD96044CBF41F00301CB
:1034B00041F00201D0E72B42E5E7038E13F0010350
:1034C000DDD08E065FBF018E89B241F00101018619
:1034D0009504E7D50022541C416A06D190F82F309C
:1034E00043F0020380F82F30DBE7C90202F101024A
:1034F000F1D5D7E791F82F30016043F0010381F84F
:103500002F3091F82F0010F00100FAD10E2381F82E
:103510002E300F2381F829308B8E9BB26FEA532314
:103520006FEA43238B86CB8E9BB26FEA93236FEABD
:103530008323CB8670470023036018467047000042
:1035400010B501689DF8084091F82800002C4ED075
:1035500040F0040081F82800C88F040440D4888D0E
:10356000400708D5486A8407FCD1888D20F0040004
:103570000004000C8885486C254C10F47F0F25480A
:1035800018BF20468C8DB0FBF2F224F020042404F6
:10359000240C8C8591F8280040074FEA520202D58E
:1035A000012A38BF0122888DC0B240EA022080B2D1
:1035B0008885888D20F0C00000049208000C02F07D
:1035C000C00202438A858A8D92B242F001028A8546
:1035D0008A8D9207FCD58A8D92B242F004028A85C8
:1035E000012B07D0042B0DD06FF00C0010BD00F0A4
:1035F000FB00AFE791F8283003F0FD0381F8283095
:103600000020F3E791F8283043F00203F6E700BF0B
:1036100000366E01006CDC020020704700290CBFF0
:103620000420002070470368186CC0F340507047B6
:1036300082B00023019341F28732019B934201D96A
:1036400002B07047019B01330193F6E7006830B484
:103650000D46416A11F0010113460BD1848924F013
:1036600001042404240C8481044CC1802A46A4460D
:1036700030BC6047002030BC704700BF41340100BF
:1036800003681869704710B5046803231A1D032BDB
:1036900054F822201CBF100E01F8010B100C08700A
:1036A000013B4FEA122048708A7001F10301EDD20C
:1036B00010BD00002DE9700305460068BDF81460D8
:1036C000446AE4072CD4446A14F0020F28D111F4A0
:1036D000004F14BF0024102411F4803F04D111F4D2
:1036E000003F17D044F02204A4B28481C3F309043C
:1036F00084800D4CC6804FF000084FF000092B82EB
:10370000C5E902896E821346A4460A46BDE87003E5
:103710002021604711F4002FE6D111F4801FE1D180
:103720000020BDE870037047413401002DE9F74FD8
:10373000D0E90298078AB0F812B004682C4D0BFB50
:1037400007F3DA17B3EB090362EB0802042B72F1FB
:10375000000334BF07F003030423019306468A469F
:103760003A46002348464146A847134315D1638E85
:1037700003F070034BB194F82F3043F0020384F848
:103780002F30002003B0BDE8F08F238E9A06EED5CF
:10379000238E9BB243F020032386019B042B236AD4
:1037A0001DD1CAF80030019BA7FB0B7213EB090572
:1037B00048F10003BD42C6E90253934115D3638E1D
:1037C00003F07003002BD6D1238EC3F340009B0778
:1037D000F5D5238E9BB243F002032386D2E7019AEC
:1037E000013A022ADFD8DBB2DBE70120CAE700BFDB
:1037F000B1E901002DE9F047D0E90268078A0468C1
:10380000DFF87CA0054689463A460023304641460B
:10381000D047134314D1638E03F0700343B194F87F
:103820002F3043F0020384F82F300020BDE8F087EA
:10383000238EDA06EFD5238E9BB243F01003238646
:103840006A8AC4F820900436A2FB072748F10003D7
:103850009642C5E90263BB410FD3638E03F0700348
:10386000002BDCD1238EC3F340009B07F5D5238EBC
:103870009BB243F002032386D8E70120D6E700BFBE
:10388000B1E90100038A2DE9F041DFF830800646F6
:103890000F4602FB03F5042415B90120BDE8F081B1
:1038A00039463046C047AC4281BF338AB3FBF4F29D
:1038B00004FB1234E4B22D1B2744EDE72D37010041
:1038C000038A2DE9F041DFF8308006460F4602FBFF
:1038D00003F5042415B90120BDE8F08139683046AC
:1038E000C047AC4281BF338AB3FBF4F204FB12340D
:1038F000E4B22D1B2744EDE7F537010001207047A6
:1039000001207047C3690B42FCD17047C3690B4269
:10391000FCD170470268034B22F0020202600321CF
:10392000184700BF0D390100F8B503680F4C43F08C
:10393000020303600321A0470246042610274FF626
:10394000FF7504211046A047538BC3F30113012BCD
:1039500001D10020F8BD013DF3D1013E02D05783D3
:10396000A047ECE76FF00500F4E700BF0539010060
:103970004268034B42F4403242600421184700BFC2
:10398000053901002DE9F0410D4614460421544A41
:10399000D0F800809047438B15F0010F06469BB28C
:1039A000174660D09D0716D501220276628892B232
:1039B00042F480526280628803F0010522F4807232
:1039C0001204C5F1FF25120C05F57F056280FC3558
:1039D0002846BDE8F08113F0040515D06368002B7C
:1039E000C1BF63889BB243F48053638063881F0424
:1039F00001D53C4B9847638823F480731B041B0C50
:103A000063806FF00105E3E7638813F4806713D0E8
:103A10002388DB0903F006079047436A03F48043D9
:103A20003B4343F0F10343629047638823F4806390
:103A30001B041B0C6380CBE7656845B963881E04D3
:103A400001D5284B9847638823F48073F0E7A36877
:103A50001B7883629047A3680133A3606368013BCE
:103A600063600025B4E715F00205B1D06268002A52
:103A700032D0590730D4013AC8F3C06162609AB9B4
:103A8000A9B163881B0408D5736823F4807373603D
:103A900004213046B847134B9847638823F480735A
:103AA0001B041B0C63800CE0012A0AD149B1736826
:103AB00043F48023736004213046B8476368002BC9
:103AC000DFD004213046B847A368B26A591CA16010
:103AD0001A7002233376C4E70223337691E700BFDE
:103AE00005390100713901000068036843F00203E1
:103AF00003600321004B18470D3901000068014B9A
:103B0000184700BF153901000368996270470368C0
:103B1000986AC0B270470368187E00F001007047D1
:103B20000368187EC0F3400070470368187EC0F336
:103B3000800070470069014B184700BF2939010018
:103B40004388DA052DE9F041066904460D4671D433
:103B50004B88414F9BB243F480734B8007C9736815
:103B600043F4807384E80700736030460421B8474B
:103B700062682069012A036836D11B0134D5436885
:103B800043F480234360B847238859054FEA430232
:103B900030D56388DB0741BF63889BB243F4806301
:103BA00063800421B84722F00102436A5205520D96
:103BB00003F480431A4342F400424262B847226948
:103BC0004FF48033117E013BC9B201D08F07F9D089
:103BD000224F2246B847E8B1638823F480731B0460
:103BE0001B0C6380BDE8F081436823F480234360AD
:103BF0000421C8E7B4F802800421B8471FFA88F806
:103C0000436AD2B208F0010842EA080203F4804392
:103C10001A43D2E76388DA05E4D522694FF480338A
:103C2000117E013BC9B208D08807F9D02246304640
:103C3000B847EFE76FF00500D4E76B881B0402D5A7
:103C4000074B30469847638823F480731B041B0C92
:103C500063806FF00400C5E7053901008539010074
:103C6000713901004FF0E0236FF07F425A61052265
:103C70001A6170470B0E30B518464FF0E0226FF016
:103C80007F440138C0B2FF280AD1A3EB0363194473
:103C9000516191614FF0E0221369DB03FCD530BD27
:103CA000546194611569ED03FCD5EAE7C268D16AF5
:103CB000C90703D501210368D16218477047000086
:103CC000014B1868014B1847CC0E0020AD3C010099
:103CD000014B5868014B1847CC0E0020AD3C010049
:103CE000014B9868014B1847CC0E0020AD3C0100F9
:103CF00083680B42FCD170470246006838B50E213C
:103D00000E4DA8470378DB0902D06FF0100038BDD4
:103D10001068A8470378C3F340049B07F5D41068E4
:103D2000037803F0FB030370A8471268537803F08D
:103D3000F00343F00B0353702046E8E7F13C010029
:103D400038B504460068084D0E21A8470378DA0903
:103D500007D12068037803F0FD030370A8471046DD
:103D600038BD6FF01000FBE7F13C0100F8B50646E6
:103D700000682C4F0D460E21B8470478E40902D0A4
:103D80006FF01000F8BD3068B84703789B07F7D490
:103D9000A2FB052585B9B2F5FA2F33D017D8B2F5B5
:103DA0007A4F31D00BD8B2F57A5F2FD0B2F5FA4FF7
:103DB0002ED0B2F5FA5F1DD06FF00C00E2E7B2F53D
:103DC000FA3F27D0B2F57A3FF6D1052412E0B2F5DA
:103DD0007A1F21D007D8B2F57A2F1FD0B2F5FA1F7B
:103DE000EAD1082406E0B2F5FA0F19D0B2F57A0F3D
:103DF000E2D10B243268537803F0F0031C43547073
:103E00000020BFE70624F5E70324F3E70124F1E7E8
:103E10000224EFE70424EDE70924EBE70724E9E7B0
:103E20000A24E7E7F13C010003685B7803F00F0325
:103E30000B2B9FBF054A32F813304FF47A7043437F
:103E400094BFB3FBF1F04FF0FF307047A04A02007F
:103E5000006808B5037843F0020303700E21024B9B
:103E60009847002008BD00BFF13C0100004B1847F7
:103E7000413D010008B50068A52303731021024BE2
:103E80009847002008BD00BFF13C0100891A70B5B9
:103E9000CC1D48BF01F10E0400EBE40002F0070264
:103EA00010F8011CD418082C41FA02F118DD10F8A2
:103EB000025CC2F10806B540102C41EA05010FDD95
:103EC00010F8030CC2F11005182CC8BFC2F118027B
:103ED00000FA05F541EA0501C4BF00FA02F21143F8
:103EE0004FF0FF30984021EA000070BD37B50E4B0F
:103EF000054601A898470D4A6B09D90102EBC31387
:103F000051581A6A1C690A4B54400C4001A854408D
:103F100005F01F059847012000FA05F5254208BF66
:103F2000002003B030BD00BFDD3101000080004142
:103F3000EB31010013B50748074C0268917B537BB6
:103F4000003918BF01210091017912688068A047EB
:103F500002B010BDD80E00205532010010B5002867
:103F600033D11B4CE3685BB3B3F90000421C27D08C
:103F7000184BC0B29847E3685B88984203D004238B
:103F8000A376022010BDA07E042801D10123F7E70B
:103F9000012812D10223A3760F4B236101236377FB
:103FA0000023A377002323710C4B23600C4B98470D
:103FB000A07E831E58425841E4E70328F2D1E1E78E
:103FC000A37E033B012BEDD8E4E70420DAE700BF32
:103FD000D80E0020ED3E0100801A0600E80E0020F9
:103FE000353F01002DE9F8430028154DDFF85880D2
:103FF000DFF85890134F40F6350608BF4FF4FC1712
:10400000A868002241F23711C047B0B1A8683A460B
:1040100044F22951C047044678B1A868C84700282F
:1040200009DA430004D52A68D37A43F00803D3722F
:104030002046BDE8F883013EE2D10024F8E700BF46
:10404000D80E002000801F408D3201009532010003
:10405000034B197911B99868024B1847704700BF94
:10406000D80E00206D32010010B5044B04249C765C
:10407000FF241C71C3E902011A6510BDD80E00208F
:104080002DE9F04F874BDFF84CB295B098470128E7
:10409000074604D0D847384615B0BDE8F08F824CAB
:1040A000824E23680025D8721D731D81A068B04719
:1040B0002A46A0687E4D4FF48041A847029680B101
:1040C000A0684FF4D57245F20851A84768B900209E
:1040D0002368DB7ADA073CD5764B984788B92368A2
:1040E000D872236803279F72D4E7A068724B984761
:1040F000411CECD0C0F30B00B0F5D57FF1D13846B0
:10410000E6E72368A068DB7ADB0722D5002245F6C4
:104110000231A8470028E4D02168684BA0683031FC
:104120009847236893F83020DA7393F831201A7493
:1041300093F832205A74002293F833109A741A7646
:1041400093F83820D9745A76596BD3F839205961CD
:10415000DA61A068002245F20311A8470028C0D008
:10416000554EA068B04723680396020C1A81DB7A8B
:1041700013F0010F36D0A068120441F60931A847A8
:104180000028AED02168A0684C4BDFF84C8120316C
:104190009847D4F800A00AF1200908236022802162
:1041A0004846C047464BC0F3C30200F0070003EB8C
:1041B000800053F82230026C53434FF47A72534319
:1041C000CAF800307E22022380214846C0470028DA
:1041D00051D01623302280214846C047013040028A
:1041E000CAF804002368A0681A8943F20711120470
:1041F000A84700283FF475AF2368DA7AD6076FD551
:104200001A89A068120441F23711A84700283FF428
:1042100068AF4FF00108CDE900882A49A0682A4E0E
:1042200008230022B04700283FF45BAFA068274B6B
:10423000424604A9984700283FF453AFA068244B96
:10424000984700283FF44DAFDFF88C9004233822C4
:10425000402104A8C847404526683FD0022840F0C6
:10426000BA8043462F22402104A8C84701280CBF2A
:104270003023202333E00C233E2280214846C047D0
:10428000032306462F2280214846C04701360230CC
:1042900086400423502280214846C04706FA00F099
:1042A000800A9DE75D3F0100D80E002085320100A5
:1042B0008D320100E53F0100953201009D32010081
:1042C000B84A020033110800A5320100C1320100D2
:1042D000D1320100514001008D3E01001A23337399
:1042E0002179A068414B9847032819D92368DA7AC5
:1042F000D00713D51A89A068120441F23711A847D4
:1043000000283FF4EEAEA068022241F20611A84751
:1043100000283FF4E6AE236804225A73344B9847D2
:10432000A068344B984700284DD02368DA7AD1072B
:1043300047D51B7B102B44D900212F4B04913C22E5
:1043400005A801269847DFF8C4802C4A2C49A068AC
:10435000CDE900664023C04700283FF4C2AEA06804
:10436000284B324604A9984700283FF4BAAEA0680B
:10437000254B984700283FF4B4AEA068039B9847AC
:1043800002063FF5AEAEDFF8888004234FF4BC721E
:104390004FF4007104A8C0470F2812D010234FF427
:1043A00088724FF400710DEB0300C04700287FF4C2
:1043B00098AE029BA068984723681A689E73B24023
:1043C0001A600B4B98472368DB7ADB0705D4236818
:1043D00000229A725EE6102381E7A0684FF4007213
:1043E00041F21011A8470028F1D17AE67532010098
:1043F000353F01007D320100BDEE010001FFFF806D
:1044000006110800C1320100D1320100A5320100BD
:104410008D3E010008B5054B984728B9044B9847D5
:10442000044B1868133008BD0020FCE75D3F010015
:1044300051400100D80E002008B5054B984728B917
:10444000044B9847044B1B68D87B08BD0020FCE751
:104450005D3F010051400100D80E002008B5054B1A
:10446000984728B9044B9847044B1868103008BD8A
:104470000020FCE75D3F010051400100D80E002004
:1044800008B5054B984728B9044B9847044B1B685F
:10449000587E08BD0020FCE75D3F0100514001004F
:1044A000D80E002008B5054B984728B9044B98470B
:1044B000044B1B68D86908BD0020FCE75D3F010084
:1044C00051400100D80E002008B5054B984728B987
:1044D000044B9847044B1B68987B08BD0020FCE701
:1044E0005D3F010051400100D80E002008B5054B8A
:1044F000984728B9044B9847044B1B68D87A08BDE5
:104500000020FCE75D3F010051400100D80E002073
:1045100008B5054B984728B9044B9847044B1B68CE
:10452000187B08BD0020FCE75D3F01005140010001
:10453000D80E002008B5054B984728B9044B98477A
:10454000044B1B68586808BD0020FCE75D3F010074
:1045500051400100D80E002008B5054B984728B9F6
:10456000044B9847044B1B68186808BD0020FCE703
:104570005D3F010051400100D80E002038B50A4CC3
:10458000236D73B1850033F92000421C09D0074B1D
:10459000C0B29847236D2B445B881B1A5842584180
:1045A00038BD0020FCE700BFD80E0020ED3E010022
:1045B0002DE9F347214B0F46154698470646C0B9EB
:1045C000DFF894801E4CDFF894A02368A0681A8955
:1045D00041F20D111204D04740B1A068DFF880907D
:1045E000C847C20509D4B8F10108EED1154B984768
:1045F0000526304602B0BDE8F087134B1349012D64
:1046000098BF19462368DB7A1B0700D47F02012379
:10461000CDE900533A46A0680D4F4FF40073B847F8
:104620000028E3D0A068C8470A4B0340002BDDD127
:10463000A4F85450A4F85650DBE700BF5D3F0100DA
:10464000D80E002051400100111108001211100075
:10465000A5320100000058E4410D03008D32010035
:104660009532010038B5094D094B0C460A46014602
:10467000A868984738B1B5F85430191B8AB20020A1
:10468000A5F8542038BD02460520F9E7D80E0020D1
:10469000C132010038B5144D144B0446A868984740
:1046A000F8B154B10023A5F85430B5F85630012BB9
:1046B00009D10F4B9847002038BDB5F85430002B76
:1046C000F3D02046F8E70022A8680A4C43F20C1108
:1046D000A04702460028ECD1A86843F20C11A0477D
:1046E000E7E70520E8E700BFD80E0020D13201003F
:1046F000514001008D320100F7B51B4B06460F46B5
:1047000015469847044630B9184B3046984728B1AB
:10471000174B98470724204603B0F0BD154B164EA3
:104720001649012D98BF19463368DB7A1B074FF0F5
:104730000103CDE9005358BF7F023A46B068104FDD
:104740004FF40073B84718B9094B98470524E2E7BE
:104750000C4BB06898470C4B0340002BF4D1A6F8E3
:104760005450A6F85650D6E75D3F01007D45010044
:104770005140010018910800D80E00201991100036
:10478000A532010095320100000058E438B5094D0A
:10479000094B0C460A460146A868984738B1B5F857
:1047A0005430191B8AB20020A5F8542038BD0246A7
:1047B0000520F9E7D80E0020C932010038B5114DA7
:1047C000114B0446A8689847D0B154B10023A5F80E
:1047D0005430B5F856300D4C012B08D1A0470020BD
:1047E00038BDB5F85430002BF3D02046F8E7A86860
:1047F000074B002243F20C1198470028EED1A04746
:104800000520EDE7D80E0020D9320100514001000B
:104810008D32010008B503460846114623B9044B02
:10482000984740EAE07008BD4FF0FF30FBE700BF5B
:104830008548010008B50346013B022B0846114696
:1048400004D8044B984740EAE07008BD4FF0FF30B1
:10485000FBE700BFA148010070B5074E074D336864
:10486000044600219868A847336800215868A84783
:10487000034B1C6070BD00BF300800202D020200F9
:10488000300F0020044A08B50346106818B18AB2F8
:104890001946024B984708BD300F0020F5AD0100C6
:1048A000044A08B50346106818B18AB21946024B8B
:1048B000984708BD300F002095AD010083680B427A
:1048C000FCD170470268034B42F0020202600321F0
:1048D000184700BFBD4801000268034B22F00202E6
:1048E00002600321184700BFBD4801000160014B71
:1048F00003211847BD480100024AD3690342FCD195
:10490000704700BF0040014130B54B1CC5B2184B89
:1049100000F01F044FEA50104FEAC010034407D1C3
:10492000234493F8402002F0FE0283F8402030BD7B
:10493000181903EB540390F8402002F0FE0242F0F5
:10494000010280F8402093F8302015F0010FC9B221
:1049500019BF02F00F0242EA011101F00F0102F04B
:10496000F00214BFC9B2114383F83010DFE700BF73
:1049700000800041024B1878C0F34000704700BF30
:10498000400F0020024B1878C0F38000704700BF32
:10499000400F002008B50D4B0D484FF400229A61DE
:1049A0005A610C4B98470C4B08221A760B4A137825
:1049B000013BDBB2137043B9094B4FF00052C3F80F
:1049C0008420BFF34F8FBFF36F8F08BD008000417D
:1049D00000600141C5480100004001410000002085
:1049E00000E100E0424B4349402270B5C3F8E020AB
:1049F0004322C3F88C20404A404C936943F48063BF
:104A00009361CB6913F0010F10D10320A0470B680D
:104A10009B0706D50B6823F002030B60A04702201A
:104A2000A047344B09221A600320A04731490120D6
:104A3000A047334B0B600320A0470B6823F440339F
:104A400043F4003317200B60A0470B6823F4401396
:104A50000B60A0472B4B4B60A0478B6843F08073E3
:104A60008B6000238B75FF230B75CB69002BFCD16A
:104A7000254C264E264D4FF400136360254BA6624D
:104A80004FF0FF31A3621520A8474FF48003636005
:104A9000214BA662A36294F85630204903F0FB0331
:104AA00084F856301620A8474FF400031C4A636070
:104AB000A662A262636094F857201A4942F0040289
:104AC00084F8572017206361A8474FF48013636070
:104AD000154BA662A36294F85430144903F0FB030B
:104AE00084F8543014202B46BDE87040184700BFAE
:104AF000001C00400040014100080040F94801004E
:104B00000800001000020200008000410000024086
:104B100009490100200002C0400002C00200160046
:104B2000800002C002001700100002C00300140041
:104B30002DE9F74F48430191934E944902252C46A5
:104B40000135B1FBF5F7B84202D2B542F7D12C4698
:104B5000302C04F10100B1FBF0F108D88C4C8D48E9
:104B6000A0478D48A047042003B0BDE8F08F8B4FCD
:104B70008B481060019AB1FBF2F11960FB69DFF814
:104B80004CA2DFF84CB2DFF84C92864DDFF8488239
:104B900043F01003FB61844B4022C3F8F420B96951
:104BA00041F40061B961C3F8E420B96941F480516E
:104BB000B961C3F8E420F96941F008015046F96190
:104BC000C3F8F420D8470121C8470021C847022371
:104BD000CAF83C3043F6FF71A8473023CAF8483082
:104BE0004FF47C510026A847CAF8404080216F4C02
:104BF000A8471021CAF83460A8472046D8470121A9
:104C0000C8473146C8470223E36343F6FF71A8470C
:104C1000032363654FF47C51A8470521216480215B
:104C2000A84710216663A8474046D8470121C847D6
:104C30003146C8471F21C8F840108021A8471021DD
:104C4000C8F83460A8475A48D8470121C8473146B8
:104C5000C847019B591E01648021A8474663102163
:104C6000A847514B4022C3F8AC20C3F8B020C3F88A
:104C7000B420C3F8B820BB6943F08003BB614D4B3F
:104C80004D4F01211970226A42F480722262D8F8D5
:104C9000202042F48072C8F82020026A42F4807218
:104CA0000262DAF8202042F00072CAF820200222C4
:104CB000C3F89C11C3F868210322C3F8842104229D
:104CC000C3F8642140F243221A6240F232229A620F
:104CD00040F229221A6340F239229A63236A374943
:104CE00043F480432362236A43F003032362236A6D
:104CF00043F400432362236A43F018032362D8F885
:104D0000203043F48043C8F82030D8F8203043F0F6
:104D10000203C8F82030036A43F480430362036A45
:104D2000A4F5604443F0020303624FF40035244BC2
:104D3000C4F888504FF08048C4F8A8803120C4F8E7
:104D4000A830B847C4F8845094F8D1301D4943F0D6
:104D5000040384F8D130C4F894501B4B4FF48035D1
:104D6000C4F888503020C4F8A880C4F8A830B847E8
:104D7000C4F8845094F8D03043F0040384F8D03061
:104D80003046C4F89450EFE60077010000D8B8052B
:104D9000FD010200544B0200AC4B02000008004031
:104DA0000024F400BD480100001C004000600141E7
:104DB000000C004200E000410949010005003100FB
:104DC000020000C006003000010000C000100042D8
:104DD000D9480100ED4801000080014138B5354C4B
:104DE00094F84E309907C3F3400548D5022384F860
:104DF0004E30314C314DD4E90423D4E90201A847A7
:104E0000237E627E03339B1A032293FBF2F505EBAC
:104E100045055B1BDBB2022BC4E902010CD1A37E6A
:104E20000133DBB2A376637E0133B3FBF2F202EB14
:104E300042029B1ADBB26376237E228D04EB83034E
:104E4000DB695A80237E04EB8303DA6913889BB203
:104E500043F001031380237E04EBC303C3E90C0179
:104E6000237E03220133B3FBF2F202EB42029B1AD0
:104E7000DBB22376124B4FF00072DA6138BD94F842
:104E80004E30DA070BD50F4B94F84F100E48984769
:104E9000012384F84E30084B83F84850EEE794F82D
:104EA0004E305B07EAD5094B09489847042384F83C
:104EB0004E30E3E700A00041400F0020E1DF010099
:104EC0000080004135000200F54B0200FD010200A8
:104ED000214C02002DE9F0432B4B2C4C2C4E85B07D
:104EE000054698472B4B25850020984704F1500331
:104EF000236204F1600363620DF10A03E061009331
:104F000003A900200DF1090302AAB0470021BDF852
:104F10000A802148DFF888E004F11C068C4603274C
:104F200056F8043BA3F800809860C3F804E0C3F887
:104F30000CC0D3F808901A88C2F3012205FA02F2D5
:104F40004A449A600131B1FBF7F202EB42028A1A3D
:104F500004EB82020329D2695D8000F52040DA600B
:104F6000DED10E4B022283F84D20012283F84D2022
:104F7000042283F84D201A8892B242F002020020E7
:104F80001A8005B0BDE8F083F9640100400F0020ED
:104F9000096601002D6601000010002000A00041FC
:104FA000284001412DE9F04F017C8B1E012B85B07B
:104FB000054607D97A487B4B9847FF26304605B00F
:104FC000BDE8F08F7849794B90F82970D0F81C90A3
:104FD00090F828A0764C984795F82B1084F88170AB
:104FE0004FF4F040012303222B83431AB3FBF2F367
:104FF0009BB2AB8223856F4B6882042F2A7484F89E
:105000008020588084F882100AD0082F08D0102FF2
:1050100006D0202F04D039466748624B98470427B2
:10502000BAF1030F05D9514664485E4B98474FF0DB
:10503000000A0026DFF8B08100964FF0FF3302220D
:1050400031461220C0474FF0FF330222314636204E
:105050000096C0474FF0FF330222314637200096BA
:10506000C0474FF0FF330222314613200096C0475D
:105070004FF0FF330222314607200096C0474FF021
:10508000FF33022231460F200096C0474FF0FF3316
:105090000222009631460E20C047494B4FF4802231
:1050A0009A61042F4FF080029A612FD14FF4800251
:1050B000C3F894204FF40002C3F894204FF000721C
:1050C0005A611AF0010F4FF4004214BF9A615A61FD
:1050D0003B4B208D3B4E1AF0020F4FF4804214BF21
:1050E0009A615A614FF400229A61374B9847374BC7
:1050F00002AACDE90239394603AB4846B047064615
:1051000018B30146274B3248984757E7082F04D178
:105110004FF48002C3F89820CCE7102F08D14FF449
:105120008002C3F894204FF40002C3F89820C5E72A
:10513000202F04D14FF48002C3F89820F3E7254BC9
:1051400025481B689968254B36E7DDF80CB0244BE1
:10515000208DC4F884B0C5F820B09847204B804615
:1051600058468946984702460B4640464946DFF86E
:105170007C80C0471B4BC4E904019847AB8A238558
:105180002B7C84F88030012384F8817084F888A017
:1051900084F889606670237084F88A300EE700BF57
:1051A000384C020035000200614C0200810502000B
:1051B000400F002000000020694C0200964C0200C5
:1051C00000800041314B0100D54E01000024F40065
:1051D000D14C020030080020B64C020031EE010034
:1051E00059E20100E549010001780100A1E5010053
:1051F00015481649026C70B5002322F002020D8D8D
:10520000C1F88C3001F11C04026403264B760B7646
:105210008B760133B3FBF6F202EB42029A1A01EBF2
:10522000820254F8040BD269C2604580028892B2AF
:1052300042F00102032B0280EBD1034A136C43F0CE
:105240000203136470BD00BF00A00041400F0020A6
:1052500070B5164C94F88A3023B9BDE870401448F4
:10526000144B1847144A154D002363762376A37612
:10527000C4F88C30136843F0020313600320104B12
:105280009847104B9847104B10484FF400225A6132
:10529000A8470F48A8470F48A8470F48A847012329
:1052A0006370237843F00203237070BD400F002029
:1052B000F54C0200FD01020000400141C54801001B
:1052C000F9480100F15101000080004100800141D6
:1052D000000C0042006001410010004270B50E4C0D
:1052E00094F88A30054623B9BDE870400B480C4B52
:1052F00018470C4B98470C4B28469847237843F0A7
:1053000004032370D5E90023C4E90C23C4E9242352
:10531000C4E9022370BD00BF400F0020154D0200FC
:10532000FD01020051520100C9980100064AD169ED
:105330000023CB60116A526ACB60D360034A136CBE
:1053400023F0020313647047400F002000A00041C7
:1053500070B5134C94F88A3023B9BDE870401148F9
:10536000114B1847114B124D12484FF400229A610D
:10537000114B9847A8471148A8471148A84711481A
:10538000A847114A136823F00203136003200F4B50
:10539000984700236370237823F00603237070BDC1
:1053A000400F0020374D0200FD0102000080004147
:1053B000D9480100008001412D530100000C00423A
:1053C000006001410010004200400141F948010025
:1053D00008B5044B9847044B80225A614FF4802251
:1053E0005A6108BD515301000080004100000000D7
:1053F0002DE9F74F7C4D6A7E2B7E9A4282460E46FF
:1054000000F0EA806A7E794B4FF4204101FB0233C1
:105410006A7EC5F88C3005EBC202D2E90C896A7E3F
:1054200003210132B2FBF1F101EB4101521AD2B278
:105430006A762A8D0192900095F88020032A67D120
:10544000324619460F1DC91A8842A2EB060402F122
:1054500003024FD895F88230062B40F08880D5E9BA
:105460002423634F40464946B847624B89468046ED
:105470009847614B49EC108B83469847404653EC64
:10548000102B4946B84756A3D3E900235B4FB847D2
:10549000584B984706F804B03444CBF307236370A5
:1054A000C0F30723A070E370C0F30743C0F30760A5
:1054B00023716071AA7E95F88930002A00F08780F8
:1054C00043F0100385F889300023AB7695F88830D7
:1054D0008AF828302B788AF82C30CAE90C8995F89C
:1054E00089308AF82D300023C5F88C30019803B03C
:1054F000BDE8F08F17F8021C02F8031C17F8031C14
:1055000002F8021C17F8041C02F8011C394699E73E
:10551000022A0ED100245A1C711C06E012F81470E5
:10552000375513F814700F550234B0EB440FF5D80B
:1055300090E7042A19D132460024844203F104037F
:1055400002F1040286D213F8011C02F8041C13F8BD
:10555000021C02F8031C13F8031C02F8021C13F8C7
:10556000041C02F8011C0434E7E7002472E7082B4E
:10557000A0D149461F4BDFF878B0404698471E4BF4
:1055800049EC108B07469847404653EC102B494690
:10559000D84713A3D3E90023DFF860B0D847154BF1
:1055A000984737553444C7F307236370C7F307435D
:1055B000A370C0F30723C7F3076720716371C0F3BB
:1055C0000743C0F30760E770A371E07172E723F04F
:1055D000100385F8893079E70023019386E700BF3F
:1055E0000000000080842E41400F002000100020A9
:1055F000DDDF0100D1E8010081C801004DE30100B9
:10560000004B1847A54F0100004B1847D15301002C
:10561000004B184775490100004B184785490100A8
:10562000004B1847DD520100004B18475153010051
:10563000004B1847F1530100044B4A229A82002282
:105640009A75DA75DA68D207FCD570470014004005
:10565000034B00221A77DA6902F47C52DA61704750
:10566000001400401C4B4322C3F88020A3F5406384
:105670001A4A9A6293F82C20C2F30011D206F9D488
:1056800083F82010164B93F82C205007FBD40222ED
:105690001A77134B93F82C209107FBD45A6A5A625D
:1056A0000F4B93F82C201207FBD4802283F8202084
:1056B0000B4B93F82C205007FBD493F82020D107F4
:1056C00006D51A6902F41062B2F5106FF9D170476D
:1056D0001A69D205FCD57047001C00400000010487
:1056E00000100040144B4322C3F88420A3F540630C
:1056F000124A5A63DA6B12F0060FFBD14FF40162C3
:105700009A63022283F830200D4AD36B9807FCD4A9
:105710000B4B1A6CD10702D41A6C9207F9D593F887
:10572000302002F07F0283F83020054AD36B13F05B
:10573000060FFBD1704700BF001C0040700B160025
:1057400000100040054B1A7842F001021A705A68A6
:10575000D207FCD4024B01225A717047001C004052
:1057600000080040044B054A1A6243F6FD7259686E
:105770001142FCD1704700BF001C0040070101002E
:10578000044B054A5A6243F6FD7259681142FCD136
:10579000704700BF001C004006010100044B054A91
:1057A000DA6243F6FD7259681142FCD1704700BFBE
:1057B000001C0040050101000E4A08B513889BB289
:1057C00013800D4B98470D4B98470D4B98470D4B49
:1057D00098470D4B98470D4B98470D4B98470D4BED
:1057E00098470D4A536943F4007353610B4B0522EC
:1057F0001A7408BD0040004139560100515601009D
:10580000455701009D57010065560100E55601000E
:105810006557010081570100000800400014004056
:10582000314B984212D1A3F5A0534122C3F89C20DA
:105830004322C3F88C202D4A536943F480535361AB
:105840002B4B0B602B4B984242D070472A4B98420F
:1058500015D02A4B98421ED0294B984229D0B0F13E
:10586000864FEFD1274B4122C3F808214322C3F8CA
:105870008C201E4A136A43F00103136217E0214B88
:105880004122C3F8A0204322C3F88C20174A536951
:1058900043F40053D3E71B4B4122C3F8DC204322DF
:1058A000C3F88C20114A936943F400739361104B41
:1058B0000CE0144B4022C3F8E0204322C3F88C20B4
:1058C0000A4A936943F4806393610F4B0B607047FE
:1058D0000C4B4122C3F80C214322C3F88C20034A0D
:1058E000136A43F00203C8E700300040000800409C
:1058F000006CDC0200040043003400400020014141
:1059000000400141001C00400080B805000000007C
:1059100037B5294C294B20689847002835D0206896
:10592000274B08309847A0F120035E2B8DF8070025
:105930002DD86268531C22446360107223440022F5
:105940001A720D2863682CD10A228DF807205A1C80
:10595000234420211972A3181A49626000251D7280
:105960009FED130B184B01F180009847656025727D
:10597000164B1B682BB12068154B01220DF1070156
:1059800098479DF8073084F8583903B030BD08288F
:1059900001D07F28D5D16368002BD2DD013B636045
:1059A000CCE70A28D3D07F2BC4BF00236360DFE796
:1059B000000000000000000000F001201133010091
:1059C0000F3B010008F001204D960100040000206B
:1059D00095AD01002DE9F04385B00024FA26DFF8EB
:1059E0004C90DFF84C800D4F0194054646430C481F
:1059F00002AB01AA4946C04701280AD04DB1A642D0
:105A000007DD084B38469847074B0220984701347A
:105A1000EDE7019805B0BDE8F08300BF64FE01200A
:105A200088F00120753E01000932010059F901207A
:105A30000597010070B5094E094B3546044645F8F7
:105A4000880B98472846074B9847002373602046E9
:105A50000549064B9847012070BD00BF00F00120AA
:105A6000594801008997010011590100C5AF010093
:105A70002DE9E84107461B4E88461D4610461AB1DF
:105A800033689968184B984733689868CDB11749BF
:105A9000174B2A4698470698164B98478045A8BF4B
:105AA0008046B8F1010F11DD13491448144B3A46F2
:105AB000984733689968134B0D2098474046BDE8D6
:105AC000E8810146084B10489847E4E70F4B294608
:105AD00038469847B8F1010FEBD033680C48996805
