:020000021000EC
:10000000B8F60320D5020100D1020100D10201009F
:10001000D1020100D1020100D10201000000000064
:10002000000000000000000000000000D1020100FC
:10003000D102010000000000D1020100D102010044
:10004000D1020100D1020100D1020100D102010060
:10005000D1020100D1020100D1020100D102010050
:10006000D1020100D1020100D1020100159F01005F
:100070003975010045750100517501005D7501007C
:100080006975010075750100817501008D750100AC
:1000900099750100A5750100B1750100BD750100DC
:1000A000C9750100D5750100E1750100ED7501000C
:1000B000D1020100613501003535010059500100C0
:1000C000D1020100D1020100D1020100D1020100E0
:1000D000D1020100D1020100D1020100D1020100D0
:1000E000D1020100D1020100000000000000000068
:1000F0000000000099350100D1020100D102010089
:10010000D1020100D1020100D1020100D10201009F
:1001100059B6010049B70100D1020100D102010026
:1001200099B6010019B70100D1020100D102010006
:10013000D1020100D14B0100D1020100D102010026
:10014000D9B60100D1020100D1020100D1020100A3
:10015000D1020100D10201000000000000000000F7
:10016000000000000000000000000000000000008F
:10017000000000000000000000000000000000007F
:10018000D1020100D1020100D1020100D10201001F
:10019000000000009D3E0100D1020100D1020100DB
:1001A000D1020100D1020100D1020100D1020100FF
:1001B000AD3E0100D1020100D1020100D1020100D7
:1001C000D1020100D1020100D1020100D1020100DF
:1001D000D1020100BD3E0100D1020100D1020100A7
:1001E000D1020100D1020100D1020100D1020100BF
:1001F000D1020100D1020100D1020100D1020100AF
:10020000D10201000000000000000000D102010046
:10021000D1020100D1020100D1020100D10201008E
:10022000D1020100D1020100D1020100D10201007E
:10023000D1020100D1020100D1020100D10201006E
:10024000D1020100D1020100D1020100D10201005E
:10025000D1020100D1020100D1020100D10201004E
:100260000000000010B5054C237833B9044B13B1DE
:100270000448AFF300800123237010BD200A002042
:10028000000000009CC203000C4B43B10C480D4918
:1002900010B5AFF300800C48036823B910BD0A48BD
:1002A000036833B97047094B002BF7D0BDE8104005
:1002B0001847064B002BF5D0184700BF0000000080
:1002C0009CC20300240A00209CC20300000000001E
:1002D000FEE7000008B5144A144B9A4218D1144B9B
:1002E000144A002193421CD3134A144B22F07F027C
:1002F0009A60D3F8882042F47002C3F88820BFF3D4
:100300004F8FBFF36F8F0E4B98470E4B9847FEE70A
:100310000D49043A8B42E2D252F8040F43F8040B21
:10032000F8E743F8041BDDE79CC20300000000204F
:10033000200A0020B8F602200000010000ED00E0D5
:100340001DF5010095CB0100040A002010B5002026
:100350000D4B9847012812D003D302280BD001205F
:1003600010BD0A4B1C7824B9094B204698478307D7
:1003700007D1022010BD054B00221A7010BD0320CA
:1003800010BD204610BD00BF954201003C0A002070
:100390002947010010B50020084B9847044650B982
:1003A000074B98472046074B9847074B40000138BA
:1003B0005860204610BD032010BD00BF95420100CB
:1003C00029470100714701003C0A002008B5044B91
:1003D000984718B102280CBF0320012008BD00BFB8
:1003E0004D0301002DE9F0471E460746164B00203D
:1003F00014460D46984726444000144B421EB04216
:100400005A601ED3DFF84880DFF84890DFF848A034
:1004100012E0012221463846C04710B10120BDE854
:10042000F08701212846C8470028F7D1D04705F5B5
:10043000007501340028F1D1A642EAD10020BDE8C0
:10044000F0870420BDE8F087714701003C0A0020D6
:10045000ED470100A5480100D5480100981838B5BE
:100460000D4611460D4A52680132904213D89CB293
:10047000224600200A4B984708B1012038BD21468A
:100480002846084B98470028F7D1074B984700307B
:1004900018BF012038BD042038BD00BF3C0A002031
:1004A00039490100CD490100FD49010010B514464C
:1004B000032917D8DFE801F00F060C0201231360AF
:1004C000002010BD084B9847400001382060F7E736
:1004D0000020107010BD054B984700280CBF00206D
:1004E000032010BD042010BD714701004D03010021
:1004F0001FB50F4B684698479DF803309DF80200E2
:100500001B0443EA40539DF8040043EAC0239DF8CE
:10051000050043EA40139DF8060043EA50039DF8A6
:100520000100143043EA406005B05DF804FB00BFF1
:10053000299E010042884378007843EA022340EA7A
:100540000320704730B54168C4780B0E00250A02BD
:100550001D4314432B0243EA1463220200258478CE
:100560001D4314432B0243EA1463220200254478FE
:1005700000781D4314432B0243EA14632202002136
:100580001043194330BD0B0A017043700B0C090E68
:100590008370C1707047110A02704170110C120E05
:1005A000C2701A0A037142711A0C1B0E817082719B
:1005B000C3717047024400F8011B9042FBD17047A1
:1005C00030B5044614F8013B11F8015B5B1B151BA9
:1005D000E84201D0002BF5D0184630BDC36A02397D
:1005E000023B99423DBF4389006C01FB03000020A0
:1005F0007047000038B519460368046D550A45EA8E
:10060000C1505A89074D0023490A0434A84723687A
:1006100033B1984202D3C01A0834F8E76368034440
:10062000184638BDE5F00100024600F10B0100203C
:10063000C30143EA500312F8010B50FA83F38A42D4
:10064000D8B2F5D1704730B5417800220131490167
:100650001346022B0FD0C55C12F0010F14BF4FF4EC
:100660000044002405EB5202224492B20133994225
:10067000EFD8104630BD0323F8E70000036870B5DB
:1006800003B31C4614F8012B1F2A26D93A2AF9D1A4
:100690001A78A2F13001092917D9124D15F8012F46
:1006A00013F8011BA2F16106192E98BF203AA1F19F
:1006B000610698BFD2B2192E9CBF2039C9B27AB157
:1006C0009142EBD04FF0FF3070BD991C8C42E4D1C9
:1006D000302AF7D10460002070BD034B187870BD3C
:1006E0009C42F6E7AA470200440A002038B50D46AE
:1006F000044618B9092000232B6038BD0368002B7D
:10070000F8D01A78002AF5D08188DA889142F1D1A0
:100710005878034B984710F00100EBD12368EBE7C2
:10072000CD03010038B50368044618785D1C20B17C
:1007300040F25231034B984708B1256038BD4FF065
:10074000FF3038BDD132010070B5114E054600248E
:1007500035F8020B08B9204670BDB04780B214F0DE
:10076000010FC2B202EB540414BF4FF40043002344
:1007700023449BB213F0010F4FEA102014BF4FF433
:100780000044002400EB53000444A4B2E0E700BF9F
:10079000F932010001380A4411F8013B00F8013F29
:1007A0009142F9D17047CA7E8B7E032843EA022327
:1007B00001BF487D0A7D42EA002243EA024318460F
:1007C0007047C2F307238A76CB760378032B01BFE9
:1007D000120C0A75120A4A757047000038B50546B2
:1007E000094B34300C469847084B886005F13800B7
:1007F0009847C4E9040195F8213003F00203E3713E
:100800000023E36138BD00BF350501004505010047
:10081000F8B5C37804460BB90020F8BD00F14C07C9
:10082000826C0C4E407801233946B04778B9A16CF0
:10083000A36B226BE070CB1A9342EDD2A378022B0C
:10084000EAD10A44012339466078B047E4E7012041
:10085000F8BD00BF5D040100F8B5244B044698477D
:100860000546002841D12378032B36D12779012F63
:1008700033D104F14C0601464FF4007230461C4B54
:100880009847552384F84A32AA2384F84B325223DE
:100890004122722184F84C3084F84D30612384F871
:1008A0004E3084F8333284F84F2084F8301284F8C4
:1008B000311284F83222A1690E4A04F50D70904776
:1008C000616904F50E709047626B607801323146C1
:1008D000A2643B46084EB04725710022114660785D
:1008E000064B9847003018BF0120F8BD11080100E1
:1008F000B5050100870501005D040100AD0401009C
:10090000F8B5836C8B4206460D4612D00A4B9847C9
:10091000044660B92A46012306F14C017078074F5E
:10092000B84700281CBF4FF0FF350124B5642046AE
:10093000F8BD0024FBE700BF11080100E50301003A
:100940002DE9F84F8C1E416CDFF870A001EB1431DB
:10095000C4F3C8074FF0010904F0070409FA04F4CE
:10096000054616469846E4B2284601F1010BD047E9
:10097000F0B93B46E91891F84C20144214BF012706
:100980000027474517D06240013E81F84C2085F88A
:10099000039011D0640014F0FF04EBD10133B3F5E0
:1009A000007F4FF001044FF000075946E2D1DBE72A
:1009B0000120BDE8F88F0220BDE8F88F0109010091
:1009C00001292DE9F0410C4640F296800568EB6A5A
:1009D000994280F091802B78013B032B00F28C80B0
:1009E000DFE803F0022B3E5201EB5106A96BDFF862
:1009F000188101EB56212846C04718B14FF0FF304F
:100A0000BDE8F081771CA96BC6F308062E4401EB04
:100A10005721284696F84C60C0470028EED1C7F30E
:100A200008073D44E30795F84C0046EA00204CBF18
:100A30000009C0F30B00BDE8F081A96B324B01EB5C
:100A40001421284698470028D8D1640004F4FF7385
:100A50004C35EA18E85C547840EA0420BDE8F0819F
:100A6000A96B294B01EBD411284698470028C5D122
:100A7000A40005F14C0004F4FE742044234B984775
:100A800020F07040BDE8F081D0E9042352EA030170
:100A9000C17901D0866806B971BB86686F89022961
:100AA000A4EB06060ED112F1FF3043F1FF31430AE9
:100AB00043EAC153B3FBF7F39E421DD81FD0601C1D
:100AC000BDE8F081032902D183699E42F7D3C3694F
:100AD000ABB9A96B0C4B01EBD41128469847002801
:100AE0008CD1A0004C3500F4FE702844074B984789
:100AF00020F00040BDE8F0810120BDE8F0816FF0FA
:100B00000040BDE8F08100BF01090100350501008A
:100B10002DE9F04104682378042B0CBF4FF080527C
:100B20004FF400128A4205460E4602D80220BDE864
:100B3000F081CA06FAD1826829633ABB022B14D825
:100B40002389B3EB561FF1D9E36BAB63AB6B6A63DD
:100B5000002BEBD003EB56234C34C6F30806344489
:100B6000AB63EC630020BDE8F081E36BC271002B46
:100B7000E6D06789DFF83C807F021A46BE42114604
:100B800006D220460A4B9847A863DFE71346F0E7F2
:100B90002846C047431C024606D00128C6D9E36A4E
:100BA0009842C3D2F61BE9E70120BDE8F08100BFFF
:100BB000DD050100C109010038B50023C3704FF005
:100BC000FF3383641A4B0446984740BB94F84B228A
:100BD00094F84A3243EA02234AF65522934220D13E
:100BE0000B221449144D04F14C00A847D8B194F8D5
:100BF0004C30EB2B03D01833DBB2012B15D803227A
:100C00000E4904F18200A84780B105220C4904F185
:100C10009E00A847002814BF0220002038BD0420F1
:100C200038BD032038BD012038BD022038BD00BFCB
:100C300001090100AE470200C1050100BA470200E8
:100C4000BE47020001292DE9F04705460C4616462D
:100C50007AD9C36A994277D20378013B032B73D8C0
:100C6000DFE803F0023F525201EB5108816BDFF8DD
:100C7000DC9001EB5821C8474B46074630BB05F1D5
:100C80004C0908F1010AC8F3080814F001041FBF59
:100C900019F8082002F00F01320102F0F00214BF2F
:100CA0000A43F2B209F80820A96B0122EA7001EBAD
:100CB0005A2128469847074640B9CAF3080A44B162
:100CC000C6F3071609F80A600123EB703846BDE841
:100CD000F08719F80A20C6F3032622F00F02164304
:100CE000F0E7816B194B01EB142198470746002868
:100CF000ECD1640005F14C0304F4FF7419191E557E
:100D0000C6F307264E70DFE7816B104B01EBD41161
:100D1000984707460028D9D1A846A40018F84C3BAC
:100D2000042B09D004F4FE704044094B984726F088
:100D3000704600F07040064304F4FE74314608EB40
:100D40000400044B9847BFE70227BFE701090100F1
:100D50003505010087050100F8B50B4F04460D4627
:100D60001646E3690BB91846F8BDEA1A012B02F1E1
:100D7000010120688CBF02323246B8470028F3D107
:100D8000E369013BE361ECE7450C010001292DE932
:100D9000F84F05468B46164602D80220BDE8F88F6C
:100DA0000468E26A9142F8D28EB9DFF8F090D84632
:100DB000CA4659462846C8470746C0B92378042B77
:100DC00002D1002E49D1EE710020BDE8F88F2278C3
:100DD000042A02D1C279022AE7D04FF0FF3231460D
:100DE00020462D4FB8470028DFD0BDE8F88F0128F6
:100DF000D3D0421C02D10120BDE8F88F2278042A0A
:100E00001BD1E16AA26902398A421FD30BF10102A8
:100E100097420DD02378042B09D1A2EB080241465A
:100E200000232046DFF87880C0470028CDD1B8469F
:100E3000E26A9742BB46BCD3C0E70022594620462F
:100E4000154B98470028DCD0BDE8F88F0132A2612D
:100E5000227942F001022271D8E7EB798BB9AC68B4
:100E6000B44202D10223EB71AEE721462846D047B7
:100E7000012892D9431CBED0631C98420446EFD08F
:100E8000A2E7032BA0D1AB689E429DD3AA6913446D
:100E90009E42E7D998E700BF450C0100C109010057
:100EA00041090100F8B5C379032B044610D18168CC
:100EB0008369084FCD18A94202D10020E071F8BD26
:100EC0004E1C32462068B84731460028F3D0F8BDA2
:100ED0000020FCE7450C01002DE9F041154B0546CB
:100EE0000E469847044608BB3146134BDFF8508046
:100EF0002846984705F14C06A86407464FF400724F
:100F0000214630460D4B98476B899C4205D3688932
:100F1000001B18BF0120BDE8F08101233A193146BA
:100F20006878C0470028F2D10134EDE70120BDE820
:100F3000F08100BF11080100DD050100B5050100C9
:100F40005D0401002DE9F04F00230B6087B08A4B50
:100F5000884615469847071EC0F29A81874E06EBD1
:100F600087035C68002C00F09581C8F80040237866
:100F700005F0FE0573B1824B60789847C30709D42A
:100F8000002D00F0898110F0040000D00A2007B085
:100F9000BDE8F08F0023F8B223706070794B98475A
:100FA000C10700F17B810DB14207EFD4002120463B
:100FB000754FB847022840F09C80DFF8DC8104F2CE
:100FC000122500212846C04702AB103543F8210006
:100FD00001310429F6D1002502AB53F82510002970
:100FE0007FD02046B84701287CD80128A56C40F066
:100FF000D98004F1570304F18C0213F8017B002F10
:101000007ED19A42F9D194F8B52094F8B43043EAED
:101010000223B3F5807F73D194F8B830092B6FD1D8
:1010200004F19400594B984710EB050841F1000971
:10103000B9F1010F08BFB8F1000F61D204F1A000AF
:10104000DFF854A1D04794F8BA1020630129A170A9
:1010500056D194F8B93099408BB26381002B4FD0B0
:1010600004F1A800D0474A4B9842834648D8831CD5
:10107000E362656304F1A400D0472A18226404F1F6
:101080009C000192D047019A89B20BFB01FB12EB45
:101090000B024FF0000343F100039945284408BFB9
:1010A0009045A0632CD304F1AC00D047DFF8EC806E
:1010B000DFF8EC90E0633D4655B963899F421FD24B
:1010C000E16B2046C04739182046C84798B9013718
:1010D000631993F84C30812B14D02035C5F30805E3
:1010E000EAE703200135042D7FF476AF042807D109
:1010F00001E0042801D1012049E701287FF675AFFE
:101100000D2044E705F1140004F14C073844D047A2
:1011100001280546F4D9E36A9842F1D26289216C2C
:10112000DFF87C80831E03FB02136364A16B2046FF
:1011300001EBD511C0470028DDD105F07F0007EB9A
:101140008000D047431C04D06B1C98420546EDD06C
:10115000D6E7A06160614FF00408338984F800800D
:1011600001339BB23381E3800A4BE360002003F537
:1011700000732361E0610AE77D060100440A002054
:10118000CD03010095030100B90B010045050100E5
:10119000FDFFFF7F4E0A002035050100DD0501003F
:1011A0000109010094F8582094F8573043EA0223CB
:1011B000B3F5007FA4D194F8633094F8627057EAD5
:1011C000032704D104F17000694B9847074694F84F
:1011D0005C90276309F1FF33012B84F802908FD8CC
:1011E00094F859108BB26381002B89D04B1E0B42AF
:1011F00086D194F85E3094F85D8048EA032818F0B0
:101200000F0FA4F808807FF47BAF94F8603094F857
:101210005F0050EA032003D104F16C00544B98475F
:1012200094F85B2094F85A3053EA02233FF468AFF5
:1012300007FB09FE03EB181272449042FFF460AF03
:10124000801AB0FBF1F04B4900F1FF3C8C453FF6B2
:1012500057AF4FF6F57188422B4400F102012A4442
:101260001ED840F6F57C6045E1626563A3632264A5
:1012700073D8B8F1000F3FF443AF7344E36301EB5D
:10128000410301F0010101EB53014FF001081FE0A0
:101290000B207CE60C207AE6284678E6032076E6EA
:1012A000A363226494F8763094F87720E16253EADD
:1012B000022365637FF424AFB8F1000F7FF420AF01
:1012C00004F178002A4B98474FF00308E063890047
:1012D00001F2FF11B7EB512FFFF412AF4FF0FF33C4
:1012E000A3616361B8F1030F4FF0800323717FF4B2
:1012F00034AF94F87D2094F87C3043EA0223012B2C
:101300007FF42BAF691C20461B4B984700287FF4C5
:1013100024AF94F84B2294F84A32207143EA022316
:101320004AF6552293427FF418AF04F14C0010495D
:101330008847124B98427FF410AF04F50C70884731
:101340000F4B98427FF409AF04F50D708847A061F8
:1013500004F50E7088476061FFE6B8F1000F3FF4B6
:10136000CFAE7344E36349004FF00208B0E700BF1B
:1013700035050100F4FFFF0F0109010052526141E0
:10138000727241612DE9F84F07460568894649B9EF
:101390006E69CEB1EB6A9E4228BF0126AB69ABB93C
:1013A000002409E0724B98470128044640F2DD8092
:1013B000421C04D14FF0FF342046BDE8F88FEB6AA1
:1013C0009842F9D34E46E9E70126E7E72B78042B4C
:1013D000EB6A40F08780A6F1020A023B9A4528BFDB
:1013E0004FF0000A634CD0464FF0010B696C284661
:1013F00001EB1831A047002848D108F00703EA6A3A
:101400000BFA03F3C8F3C801DBB2A2F1020E6A18AB
:10141000404692F84C2008F10108F04502EA030228
:101420002DBF4FF000085B00DBB24FF4007128BF06
:1014300043460ABB841C631E0333BDD801231A46EE
:1014400021462846DFF83881C047022800F08D8009
:101450000128AFD0B9F1000F1DD10223FB71FB7938
:10146000022B07D009F10103A342FB6920D1EBB1A4
:101470000133FB6140B378E0C2450AD0002BC6D1EE
:101480000131B1F5007FB1D20123C0E74FF0FF3445
:10149000D1E70024CFE7FB79022BE0D1731CA342F4
:1014A000DDD0BB68F61ABE610323D7E70223E0E76D
:1014B0000BB90123FB612246494638462E4B98471B
:1014C00000284FD10123FB61EA6AAB696C61023AE3
:1014D00093429CBF03F1FF33AB612B7943F00103CF
:1014E0002B7169E74E4514D1741C9C4228BF02241D
:1014F000214638461E4B9847012836D0431C3FF4FE
:1015000059AFE8B16B69012B03D9EA6A934238BF3E
:101510001E46DFF85C803446EB6A01349C4203D3FC
:10152000012E7FF63DAF022421463846C04748B120
:1015300001281AD001303FF43DAFB442ECD12FE77F
:10154000002CE6D04FF0FF32214628460B4EB04724
:1015500040B9B9F1000FB7D0224649462846B047F6
:101560000028B1D001283FF425AF012424E700BFB3
:10157000C109010001090100590D0100450C0100DC
:10158000410901002DE9F8430568076B2B78042B0E
:101590000CBF4FF080534FF400132037BB429CBF69
:1015A00000238363836B0446894673B1C7F308083D
:1015B000B8F1000F3ED1416B0133836341B92B89F0
:1015C000B3EB571F36D80023A3630420BDE8F8838C
:1015D0006B89013B13EA57232CD11B4B98470128F9
:1015E000064602D80220BDE8F883421C02D1012041
:1015F000BDE8F883EB6A984216D3B9F1000FE2D048
:10160000616B124B204698470646D0B10128E9D0BD
:10161000431CECD001460E4B284698470028E6D1E3
:10162000E37943F00403E371666331462846094BCE
:101630009847A0634C3545442763E5630020BDE827
:10164000F8830720BDE8F883C10901008513010074
:10165000D90E0100DD0501002DE9F84F05460068AF
:10166000334FA96B0669B847B946044620B9E96B00
:101670000B78852B03D002242046BDE8F88F20226A
:101680003046DFF8B4A0D047777801377F01A7F163
:101690006003B3F5007FEED821462846DFF89CB002
:1016A000D84704280446E6D00028E5D1A96B28686D
:1016B000C84704460028DFD1E96B0B78C02BDAD18C
:1016C0002022B018D04796F823300F222C33B3FBDA
:1016D000F2F3B7EB431FCED34FF04008002128466A
:1016E000D84704280446C6D00028C5D1A96B28686D
:1016F000C84704460028BFD1E96B0B78C12BBAD18B
:10170000B8F5187F03D2202206EB0800D04708F175
:1017100020084745E2D8B8F5187FADD8054B3046CC
:101720009847F278B37843EA02239842A3D1A3E71B
:101730000109010047060100950701008515010018
:101740000B6810B503600B6A83604B6AC37100229B
:1017500023F0FF03896A03614261C261C164054BE2
:101760000446984720B92046034BBDE8104018476F
:1017700010BD00BF110B0100591601002DE9F84FF3
:101780004FF0FF08056804460E46C1464FF0040AB4
:10179000A16B19B9BAF1000F12D08DE02846504B59
:1017A00098478246002840F08780E06B0378002B42
:1017B00000F093802A78042A17D136B1832B73D195
:1017C0004FF0000A5046BDE8F88F852B6CD1236B93
:1017D000E3642046434B9847824600286CD12B692E
:1017E0001B7903F03F03A371ECE7C27AE52B02F00B
:1017F0003F02A27156D02E2B54D022F02001A1F12D
:101800000807794279418E424CD10F2A57D15906A7
:1018100042D5226B417BE26403F0BF0390F80D8058
:10182000884558D1C17E827E42EA012212B2CABBEB
:101830000178D5F80C9021F0400101394FF00D0EE0
:101840000EFB01F14FF0010C4FF6FF7A264F12F814
:1018500007E000EB0E0B10F80EE09BF801B04EEA2B
:101860000B2EBCF1000F1BD0FF291BD829F811E06B
:10187000F446013101320D2AE8D10278520607D52B
:10188000BCF1000F04D0FF290CD8002229F8112048
:10189000013B5FFA83F907E0994503D14146BDE773
:1018A000D645E7D04FF0FF09002120460F4B98475F
:1018B000824600283FF46CAF0023A36382E7B9F1AE
:1018C000000F04D10A4B984780453FF479AF4FF0A1
:1018D000FF33E36476E78846E4E74FF0040AEBE77A
:1018E00001090100591601000C470200851501008D
:1018F000290601002DE9F8430F46174B0568002122
:101900000446984710BBDFF85880144E8146A16BFF
:101910002846C047D0B92B78042BE36B1B7809D13C
:10192000DB43C3F3C0135BB109F10109B94508D129
:10193000BDE8F883E52BF7D0B3FA83F35B09F2E750
:10194000994601212046B0470028E0D0042808BF6E
:101950000720BDE8F88300BF110B010085150100C9
:101960000109010003682DE9F0471E69174BDFF8F4
:101970006480DFF86490DFF864A00546304698473D
:10198000B070000AF070E96C114B777828469847E0
:1019900004462CB1022C28BF0224E0B2BDE8F08737
:1019A000A96B2868C04704460028F3D1202231469D
:1019B000E86BC8472B680122DA70002FEAD0214675
:1019C0002846D04720360446013FE2E7470601009B
:1019D000110B0100010901009507010085150100A7
:1019E0002DE9F04F002185B0724BD0F800800446FD
:1019F00098478246002840F0D38098F80030042BA6
:101A00003AD1D8F80C006C4B6C4F984781460021B6
:101A100020466B4B984708B18246C1E0D8F8103099
:101A200093F8251093F8242042EA01229145EED143
:101A300093F823B0054640265D4506D1D8F80C3012
:101A400033F81530002BE2D1AAE0F106D8F81030B7
:101A500008BF023699199B5D487843EA0020B847D1
:101A6000D8F80C10009031F81500B847009B83425D
:101A7000CDD102360135DFE74FF0FF334FF0FF0BDA
:101A8000E3645E46A16B4F4B404698470028C3D1A4
:101A9000E56B2F78002F00F08980EA7AE52F02F0BD
:101AA0003F03A37103D0120705D50F2B05D04FF0CC
:101AB000FF33E3645AE00F2B60D194F84B305806A3
:101AC00055D479064AD5226B6B7BE26407F0BF07D9
:101AD00095F80DB09B4567D1EB7EAE7E46EA0326B6
:101AE00036B2002E42D195F80090D8F80C30009311
:101AF00009F03F0909F1FF334FF00D0909FB03F924
:101B00000121314BF25CAB18AA5C5B7842EA0323FB
:101B100041B3B9F1FF0F29D818460393274B9847D3
:101B2000009B029009F1010233F81900234B019246
:101B300098470299814219D1039B019A194691460F
:101B400001360D2EDDD12B785A0604D519B1009B34
:101B500033F8193053B9013FFEB208E0BE4205D157
:101B60005B46B5E74FF6FF729342E9D0FF260021AE
:101B70002046164B9847002884D04DE726B92846C2
:101B8000134B984783450BD094F84B30DB078ED42A
:101B90000B2204F1400128460E4B9847002886D1BD
:101BA000504605B0BDE8F08F9B46DFE74FF0040AD2
:101BB000F6E700BF110B010049070100F9320100EF
:101BC0007D170100010901000C4702008515010085
:101BD00029060100C10501002DE9F04F90F84B40A6
:101BE00014F0A00499B0054640F003810668F2683D
:101BF00032F81430002B4CD13378042B40F089801C
:101C00000F230E342846B4FBF3F47B4BA11C9847FA
:101C10008146002879D12B6B04F100640134A3EBD9
:101C20004414EB79EC645A0735D523F00403EB71C7
:101C30002846724B9847002829D14FF0FF32696B34
:101C40006F4B2846984710BBAB6823B3294604A8BE
:101C50006C4B9847D8B9D5E9042370896A4C4FF486
:101C60000071E1FB00233069C5E904233830A04747
:101C70003069D5E904232830A047EB79326943F075
:101C8000010382F8213004A8604B984718B18146BF
:101C90003BE00134ACE734695D4BF568402200213C
:101CA00020469847852300212370C02384F82030E4
:101CB00001200A4640234FF0C10E8C465F1C04F8F9
:101CC00003E004F807C0CEB2023320B135F81200A9
:101CD00008B10132D2B2E718E0544FEA10280233BB
:101CE00087F80180DF06F0D135F812700131002F3E
:101CF000E4D1B31C637084F823202846454B9847F1
:101D000084F82400000A84F82500484619B0BDE88C
:101D1000F08F05F140070C22394604A8DFF8FC805B
:101D2000C0479DF81B30DB0740F183804023DFF87C
:101D3000F0A085F84B304FF0010B0B2204A9384678
:101D4000D6F80C90C047BBF1050F4AD85B46072276
:101D500003F00F0000F13001392988BF00F137018D
:101D6000013A02A810441B094170F1D118A911448D
:101D70007E2001F8580C9A4239D0F95C202934D1E0
:101D80003B44072A9BBF18A98918202111F8581C29
:101D900003F8011BA3EB070198BF01320729F0D913
:101DA00028461D4B9847814600283BD10BF1010B7B
:101DB000BBF1640FC1D14FF00709A6E7102002F074
:101DC000010E0EEB430313F4803F18BF83EA0A03AE
:101DD00001384FEA5202F2D131F8022F002AEDD138
:101DE000B5E7A9F102015B46F6E70133C3E7134605
:101DF000C6E74FF0060988E7F5180100A50E0100B7
:101E0000590D0100411701009705010065190100F6
:101E1000B505010049070100E1190100950701001E
:101E20002110010004287FF470AF9DF81B3085F865
:101E30004B309DF81B309B0745BF0C340D2301240C
:101E4000B4FBF3F448BF0134214628463E4B984783
:101E5000814600287FF459AF013C5BD0296B3B4B96
:101E6000A1EB441128469847814600287FF44DAFE6
:101E70003846374B98470190A96B364B3046984708
:101E8000814600287FF441AFEB6B9DF80420D6F823
:101E90000CC05A73E1B20F224FF00D0EDA724A1ED7
:101EA0000EFB02F218739876D876009286464FF6AB
:101EB000FF7948451FBF009A3CF81200013200929A
:101EC000254A1EF802A00EF1010E03EB0A0B03F8DF
:101ED0000A004FEA102A002808BF4846BEF10D0F3D
:101EE0008BF801A0E5D14FF6FF7E704503D0009A34
:101EF0003CF812200AB941F0400119700123F37037
:101F000000212846154B9847814600287FF4FDAEF6
:101F1000013CB1D1A96B0F4B304698478146002850
:101F20007FF4F3AE0E4BE86B2022494698470B2214
:101F30003946E86BC04795F84B30EA6B03F018035D
:101F400013730123F370E0E6F5180100110B010093
:101F500029060100010901000C4702008515010056
:101F6000B50501002DE9F04F0B78D0F800A02F2B1C
:101F700099B005468B4601D05C2B0AD15A4613789E
:101F80002F2B934602F10102F9D05C2BF7D00023EE
:101F900001E0DAF81C30AB600023EB619AF8003006
:101FA000042B1DD1AB68DBB1DAF820302B62DAF8F4
:101FB00024306B62DAF82830AB62294604A8AE4BB5
:101FC00098470146C0B9DAF81040AC4B04F138002C
:101FD00098472861696194F8213003F00203EB719E
:101FE0009BF800301F2B00F29A80802385F84B303D
:101FF00000212846A24B984719B0BDE8F08FFE2E6D
:1020000000F2B68029F8163001368FE001330493D0
:10201000049B1A782F2AF9D05C2AF7D00024012ECD
:10202000DDF810B040D1B9F800302E2B43D009EBC9
:102030004603002E40F09E80002309EB460229F85B
:102040001630002E00F0948039F81310202900F08B
:102050009A800BB92E2902D144F00304E4B232F87D
:10206000021D2E2901D0013EF9D10B22854F2021DE
:1020700005F140004FF00008B8470822474639F8FC
:102080001300591C0191002800F01881202804D069
:102090002E287AD1B14200F0078144F00304E4B263
:1020A000019BECE70424BAE7022EC0D1B9F8023054
:1020B0002E2BBCD1B7E7002329F8163005F14002DA
:1020C0009E4294BF20212E2101330B2B02F8011BCD
:1020D000F6D144F020046C4B85F84B4028469847D5
:1020E00095F84B30002840F0A6805A0784D4AB798D
:1020F000DB0640F1BE809AF80000042840F0AF8073
:10210000AB682B622B69EA79DAF8100023F0FF0341
:1021100013436B62EB6CAB6229465C4B984718AC7F
:102120002B6844F850BDD3F80C9000262046584B3D
:102130009847471C1CD0B0F5803F24BF030C29F8FA
:10214000163083B228BF01361F2BABD92F2B3FF49B
:102150005FAF5C2B3FF45CAF7F2B3FF650AF4D4938
:10216000184611F8012F002A3FF449AF9042F8D1E8
:10217000062041E733F8022D202A02D02E2A7FF4D0
:102180005BAF013E55E701335EE7904580F08F80FD
:10219000019BB34211D10B2A08D18BE0019BB342C2
:1021A00004D044F00304E4B200F28880BF00FFB220
:1021B00001960B224FF0080872E77F2839D944F0C6
:1021C0000203DBB2029340F25231334B0392984741
:1021D00010F0800F029B039A12D0304900F07F006C
:1021E0000844407B38B12E4C14F8011F002900F040
:1021F00089808142F8D143F00303DBB25F2010E015
:10220000FF28EFD9511E884504D344F00304E4B2FB
:10221000904645E705EB0801040A81F8404008F1C3
:10222000010805EB08011C4681F8400008F101088F
:1022300036E72346D7E704287FF4DEAE13F0200FFD
:1022400003F0040307D0002B3FF469AF802385F827
:102250004B300020D0E6002B08BF0520CCE62B6BCE
:102260000AF14C01C3F3080319440E4B9847A860C8
:1022700055E70520C0E600BF411701003505010004
:10228000110B0100B5050100E1190100DD07010096
:1022900025070100C3470200913201000C470200EC
:1022A000CC470200A70701009045FFF474AF0B2A4A
:1022B0007FF474AF44F00304E4B20B2295F840308D
:1022C000E52B04BF052385F84030082A04BFBF0072
:1022D000FFB207F00C030C2B03D007F00303032B12
:1022E00002D144F00204E4B2A6073FF5F4AEF807C9
:1022F00044BF44F01004E4B2790744BF44F008043A
:10230000E4B2E8E6A0F1410189B2192901D847F009
:102310000207A0F1610189B219299EBF203847F058
:10232000010780B27DE700BF1FB5019004A8104BE4
:1023300040F8041D009114469847002814DB0D4B0B
:1023400080001A1852680AB100211170019A0AB16E
:102350000021117003445A6044B1002201A968466B
:10236000054B984704B010BD0B20FBE72046F9E76A
:102370007D060100440A0020450F01002DE9F047C9
:1023800098B0174601910446002800F0288102F019
:102390003F052A4603A901A8974B9847002840F01B
:1023A000208118AE039B46F8503D0199934B30466F
:1023B0009847024620B99DF95B30002BB8BF062232
:1023C00017F01C0F00F084805AB1042A03D1304664
:1023D0008B4B9847024645F008055AB1002323600D
:1023E000AFE09DF8163013F0110F40F00081780730
:1023F00000F1F980290777D5039BDFF83092187830
:10240000DFF82C82042834D11869236021467D4BE3
:102410009847039B18697C4B1E2200210230984785
:10242000039A106900211A2226309847039B1A69E3
:10243000202111711F69C847083701463846C04737
:10244000039B1B69012283F8212030466F4B98477C
:1024500002460028C2D1A168002945D06C4B204615
:102460009847A3680399013B02464B61002A3BD081
:10247000B4E7DDF84CA0674B514698470746C8477C
:1024800001460AF10E00C047139B03982022DA721E
:102490001399614B00229847139B00221A775A77B1
:1024A0009A77DA77039B0121D970EFB1D3F848808E
:1024B000574B394630469847024600288ED1574B35
:1024C000039841469847039B013F02465F61CDE771
:1024D000002A83D19DF81630DA0600F18680BE0707
:1024E00002D5D80700F18380039A139E936CA364EE
:1024F000E6641078290748BF45F04005042824D138
:10250000069B2362089B9DF81710106923F0FF03B8
:102510000B436362179BA36221463A4B9847039B88
:102520002360D988A1800022226584F8312062646A
:1025300000200021AA0684F83050C4E90E0110D40E
:102540000022104618B0BDE8F0873146314B98475D
:10255000334BA06006F11C009847002320616361A3
:10256000DDE7D4E9046756EA0702E9D0B3F80A8048
:10257000A1682C4DC4E90E674FEA48284FF00009C6
:10258000B94508BFB04501D300220DE02046A84759
:102590000128014621D9431C5A425A41B6EB08068C
:1025A00067EB0907002AEBD02164002A7FF416AFFD
:1025B00040F2FF184FF0000908EA060809EA070987
:1025C00058EA0903BCD00398174B984788B1730A9F
:1025D00043EAC75318446064B3E70222DEE70922E6
:1025E000AFE70246FAE60822F8E60422F6E60722FA
:1025F000F4E60222F2E600BF450F0100651F01006C
:10260000D91B0100DD070100B505010065190100B6
:102610008D0D0100A7070100C3070100010901009A
:1026200035050100C1090100DD050100F1040100CB
:10263000870501002DE9F04F9A4685B00023CAF8BE
:1026400000300F46554B03A90446914698478046F3
:10265000002834D194F83180B8F1000F2FD194F8CC
:102660003030DA0740F19780D4E90E01D4E9042331
:10267000121A63EB010300218B4208BF4A4538BFA1
:102680009146B9F1000F1AD0D4E90E2340F2FF10A1
:10269000002110401940014364D103994E89510A29
:1026A000013E41EAC3510E401ED152EA03010AD154
:1026B000A068012812D84FF0020884F83180404603
:1026C00005B0BDE8F08F216D19B120463449884727
:1026D000EFE7216C334B20469847EAE7431C02D1D1
:1026E0004FF00108E9E72064DDF80CB0216C2E4BB7
:1026F000584698470028DED033185FEA59250193E1
:102700002ED0BBF80A309BF8010072199A4288BF9C
:102710009D1B2B46019A254E3946B0470028DFD134
:102720000399CB785BB1886C019BC01A854206D9AE
:102730004FF400724C3107EB40201D4B98476D025F
:10274000DAF800302B44CAF80030D4E90E235219CD
:1027500043F10003A9EB05092F44C4E90E2390E7D8
:10276000019B6364A56B616C0398124BC5F308056C
:10277000C5F500754D4528BF4D4698470028AFD197
:102780000399A36B4C31C3F3080319442A46384616
:10279000074B9847D4E74FF0070890E7ED06010094
:1027A000F5050100C1090100DD050100E503010097
:1027B00095070100010901002DE9F04F984685B009
:1027C0000023C8F8003089466E4B03A9044616461C
:1027D0009847054600283DD194F83150002D39D155
:1027E00094F830309A0740F1CA80039B1B78042B81
:1027F00003D0A36BDE4200D3DE432EB3D4E90E2315
:1028000040F2FF10002110401940014340F09B802E
:102810000399B1F80AB0510A0BF1FF3B41EAC351E9
:102820001BEA0101019129D152EA030106D1A068F6
:10283000B0B901462046544B984704E0216D69B178
:1028400020465249884758B994F8303043F0400345
:1028500084F83030284605B0BDE8F08F216CE9E7F8
:10286000012803D1022584F83150F3E7431C01D13C
:102870000125F8E7A368206403B9A0600398636C9E
:10288000826C9A4203D1424B98470028F0D1039FB3
:10289000216C404B384698470028E3D0019B5FEA03
:1028A000562A03EB000B3CD0019A7B8978783A4F8B
:1028B00052449A4284BF019AA3EB020A53465A46F5
:1028C0004946B84707460028D2D10398816CA1EB4E
:1028D0000B018A4508D9314B4FF4007209EB4121B5
:1028E0004C309847039BDF704FEA4A2AD8F80030F3
:1028F0005344C8F80030D4E90E23D4E9040112EBA4
:102900000A0243F10003994208BF90423CBF1046BF
:102910001946A6EB0A06D144C4E90E23C4E9040112
:102920006BE7D4E90E01D4E90423994208BF904231
:1029300007D33846164B9847002899D1039BC3F814
:1029400048B0C4F844B0A36B616C0398C3F3080AA1
:10295000CAF5007AB245124B28BFB2469847002804
:1029600086D10398A36B4C30C3F308035246184436
:1029700049460A4B9847039B0122DA70B6E70725C0
:1029800068E700BFED06010085130100F5050100B1
:1029900011080100DD0501005D040100950701003B
:1029A000010901004368002BF7B5044614DB5D1CE8
:1029B00003443B2D866819730BDD01AB2A4600F1F9
:1029C0000C01064F0068B847019B5D1B18BF4FF014
:1029D000FF3501366560A66003B0F0BDB927010080
:1029E00037B54268002A044603DA4FF0FF3003B0DF
:1029F00030BD00F10C0101AB0068054DA84700286F
:102A0000F3D16268019B9A42EFD1A068EFE700BF63
:102A1000B92701002DE9F04196B001A9424B0546C6
:102A20009847044600285BD195F830305B0657D5AF
:102A30003E4B9847074601980378042B54D128460B
:102A40003B4B9847044600284AD14FF0FF32296C8F
:102A5000384B284698470446002841D1294602A809
:102A6000354B9847044600283AD1019B334E1969EB
:102A7000DFF8DC800A7942F020020A71EA791969EC
:102A800042F0010281F821201869A9683430B0476A
:102A9000019B1869D5E904233830C047019B1869A8
:102AA000D5E904232830C047019B186939460C300A
:102AB000B047019B1A6954751B6902A81C745C74A9
:102AC0009C74DC741E4B9847044648B901981D4B12
:102AD000984795F8303023F04003044685F83030AD
:102AE000204616B0BDE8F081A96C174B9847044604
:102AF0000028F5D1EE6CF37A43F02003F372AA6854
:102B0000124B28683146984729690C4A06F11C0087
:102B1000904706F11600394690470198B474012396
:102B2000F474C370D3E700BFED060100F1040100A7
:102B3000A50E0100590D0100411701008705010094
:102B4000651901005908010001090100C3070100CE
:102B50009705010013B5064B0446984728B901A90B
:102B60002046044B984700B9206002B010BD00BF5A
:102B7000152A0100ED0601002DE9F04F91B08846BD
:102B80000190144603A9002201A8424B984705462C
:102B900040B9039B2360DF6A9A69BE1EB24205D822
:102BA000C8F80020284611B0BDE8F08F1A78012A35
:102BB0001DD110AFDFF8E09047F8303D0226044603
:102BC00031463846C847431C5ED001285ED000B964
:102BD0000134039BDB6A01369E42F1D3039BC8F8A4
:102BE00000401A799C6142F001021A71DAE7042A66
:102BF00022D1596CDFF8A4900746044637B90398F0
:102C000001F1010AC847002842D15146039B3B44C9
:102C1000A6F1080293F84C3046B1D80706F1FF360A
:102C200058BF013496424FEA5303F5D10137C7F339
:102C30000807002EE2D1D1E7996BDFF86090DFF84A
:102C400060A0064604462EB9039801F1010BC8475F
:102C5000F0B95946039810F84C3B022B0CD183195C
:102C60005A78835D53EA022308BF01340236013FDC
:102C7000C6F30806E7D1B1E73044D04730F07043DF
:102C800008BF01340436F2E70125A7E70225A5E7CE
:102C90000546A3E7450F0100C10901000109010034
:102CA000350501002DE9F043A5B00222019003A9EA
:102CB00001A85A4B98470446002840F08C8024AE67
:102CC000039B46F8503D0199554B304698470446C2
:102CD000002800F09E8004287DD19DF88B1011F013
:102CE000200140F0988024AF039B47F8803D4D4B76
:102CF000384698470546002873D0012D6FD06B1CCD
:102D00005C425C41484B98478046002C7BD1294669
:102D10000398464B98470446002874D103980378DB
:102D2000042B27D00B2220214C30414B414C98479B
:102D300003984FF02E09102380F8573080F84C90FC
:102D40003D4B41466230984703982A4600F14C01BA
:102D5000A0470398394B00F14C0120226C30984772
:102D60000398129A80F86D9000F16C01A047039BC4
:102D70000122DA703046324B98470446002842D18F
:102D8000039B1A78042A2C4A2DD1186941460C302D
:102D90009047039B1869294634309047039B598913
:102DA0001869490238309047039B598918694902CC
:102DB00028309047039B1A69032182F821101B6970
:102DC00010221A7130461F4B9847044618B90398D1
:102DD0001D4B98470446204625B0BDE8F0830224E9
:102DE00090E707248EE71F984146163090472A4601
:102DF000104B1F99039898471F9B1022DA72039B70
:102E00000122DA70E3E70022294638460F4B984743
:102E1000E1E70824DFE70624DDE700BF450F0100F6
:102E2000651F010085130100F1040100D90E0100A6
:102E3000B5050100C30701008705010095070100E2
:102E4000D91B010065190100590801008D0D010011
:102E50002DE9F0439FB00222019003A901A8684B1D
:102E600098470546002833D1039B664F1B78042BF7
:102E700004AE46D1014616223046B8472C46624D74
:102E8000019B1B781F2B1BD8039B0A9300210AA8C8
:102E90005E4B0C9198470546D0B901210AA85C4BBE
:102EA0009847002869D1039B1B78042B56D1199BA6
:102EB0005C701998162231460230564B984755E0FF
:102EC00001A8A847B0F5803F18D3431C04D10625BC
:102ED00028461FB0BDE8F083092CF8D806EB440261
:102EE000030C06F814301B0A537001344A4A12F8D6
:102EF000013F002B73D09842F9D1E8E70028F5D1C3
:102F0000E5E70B2220213046B8472C46DFF8188130
:102F10003D4DDFF81891019B1B781F2B0BD89DF8B6
:102F20001030E52BD3D0002CAED0631EF25C202AEB
:102F3000AAD11C46F7E701A8A847B0F5803FC6D242
:102F4000C04740F25231C8470028C0D0334A12F877
:102F5000013F002B4FD09842F9D1B8E71CB10B22AA
:102F600031461998A9E7199BE5221A7003980123A5
:102F7000C3702B4B98470546AAE70428FBD1002CC9
:102F8000A6D001210AA8274B9847054600289FD1C3
:102F9000202201461998B847039B199A1B78042BE5
:102FA0001C4B08D183211170199A5470199816225C
:102FB0003146023082E70821D17219980B2231463E
:102FC0007CE7092C83D81EAB2344020A03F8682C43
:102FD00001341EAB2344013403F8680C9BE70A2C30
:102FE0003FF675AF06EB440306F81400C0F3072064
:102FF0005870013444E7FF28E3D80A2CE9D966E782
:10300000450F0100B505010025070100110B010066
:103010007D170100950701009F47020098470200B5
:1030200059080100F5180100F93201009132010040
:103030002DE9F743DFF84090064690464F1E0546BF
:103040000024BC420FDA01AB012269464046C84762
:10305000019B012B07D19DF8003005F8013B0A2B9D
:1030600004F10104EDD100239C4214BF3046184600
:103070002B7003B0BDE8F083352601000EB42DE9B6
:10308000F0479DB025AB05467E4E53F8044B4C22CD
:10309000002109A8B0477C4E0995009321780029AA
:1030A00000F0E780252903D0013409A8B047F5E7EF
:1030B0006178302911D1A178E31C01222A2915D089
:1030C00000271C460A20A1F13003092B14D800FB6D
:1030D0000717303F14F8011BF5E72D2919BFA31C72
:1030E0000022E31CA17808BF0222E7E70099081D2F
:1030F0000F68197800905C1C01F0DF034C2B02BFB5
:10310000217842F004020134002900F0B280A1F1DC
:103110006103192B9ABFA1F12003DBB20B464F2BA1
:1031200033D00AD8432B00F08A80442B00F08F80E4
:10313000422BBAD14FF0020E29E0552B00F08780C8
:10314000582B00F08180532BAFD1009BD3F8008027
:10315000191D00914346A3EB080513F8011B002934
:10316000F9D1930704D42B46BB4205F101055FD387
:1031700008F1FF3818F8011F00295DD1AF428DD941
:10318000202109A8B0470135F8E74FF0080E12F0EA
:10319000040F00985ED0051D00680095442B04D1F3
:1031A0000028BCBF404242F0080278290CBF4FF013
:1031B00027094FF0070900210DF10408B0FBFEFCC0
:1031C0000EFB1C05EBB2092D84BF4B44DBB2303340
:1031D00060464D1C08F80130BCF1000F02D0202DD4
:1031E0003ED11F21100705D51CAB1D442D2305F82A
:1031F0006C3C8D1C12F0010F14BF4FF0300A4FF0E1
:10320000200A930733D42B46BB4203F1010929D38B
:10321000013D09A818F80510B047002DF8D14F4519
:103220007FF63CAF514609A8B04709F10109F6E71E
:10323000202109A8B04796E709A8B0479AE7009B64
:103240001A1D0092197830E74FF0100E9FE74FF0EB
:103250000A0E9CE7442B00F10403009300689EE7EC
:103260002946ABE7514609A8B0474B46CCE7A946EB
:10327000CEE709A8054B98471DB0BDE8F04703B05D
:10328000704700BFB5050100A5290100E129010033
:103290007F2810B501D880B210BDB0F5803F03D2B1
:1032A00040F25233994201D0002010BD074C002259
:1032B00034F81210884293B203D00132802AF7D139
:1032C000134603F18000C0B210BD00BFD447020016
:1032D0007F280DD940F25233994208D1FF2806D8F1
:1032E00000F10040034B803833F810007047002095
:1032F000704700BFD4470200B0F5803FF0B522D23E
:103300001F4AA2F1BC0183B2B0F5805F28BF0A4614
:10331000141D34F8042C2146A2B1934212D334F880
:10332000025C2E0AEDB2AF18B84222DA082E09D894
:10333000DFE806F0050A10121416181A1C00801A8D
:1033400034F810301846F0BD981A00F001001B1A2E
:103350009BB2F7E7103BFBE7203BF9E7303BF7E791
:103360001A3BF5E70833F3E7503BF1E7A3F5E353E6
:10337000EEE70434002ECCD101EB4502C8E700BFD4
:1033800090490200EFF31083036072B6BFF35F8FC2
:103390007047BFF35F8F036883F3108870470000A6
:1033A000014B1860014B1847B00E00203D3E010054
:1033B000054B10B51C68054B9847054B0146204648
:1033C000BDE81040184700BFB00E002029350100AD
:1033D000513E0100004B1847F13C0100C1F30901C7
:1033E00002F480620A43828310467047004B1847FC
:1033F000A3360100004B1847E536010010B49DF8D4
:1034000004400194024CA4465DF8044B604700BFA1
:10341000ED360100004B1847C5370100004B184737
:10342000C9370100004B1847D3370100004B18473C
:10343000DD370100004B1847F9370100004B1847F2
:103440002D380100004B18473338010030B4BDF867
:1034500008400294034C9DF80C500395A44630BCE0
:10346000604700BF61380100004B1847353A010042
:10347000004B1847713A0100004B1847AD3A010064
:10348000004B1847B13A010010B5054B9847044668
:1034900018B9044B9847204610BD6FF00C0010BDC2
:1034A000693501002135010008B50830014B984706
:1034B000002008BDA53C010008B50830014B984725
:1034C00008BD00BFE73C0100044B1968024609B97A
:1034D00003491960186802441A607047B40E00204E
:1034E000B8F603204FF0FF3070474FF400534B60A5
:1034F000002070470120704700207047BFF34F8FB6
:103500000549064BCA6802F4E0621343CB60BFF37F
:103510004F8F00BFFDE700BF00ED00E00400FA059B
:10352000BFF34F8F30BF7047014B5843704700BF08
:1035300000770100094B186803691A8AD20704D57D
:1035400001221A82036843B118471A8A92B222B143
:1035500040F25E221A824368F5E77047B80E0020F9
:10356000004B184735350100072810D80123834048
:1035700013F0F40F0BD0074A0A2350705178884299
:1035800003D0013B13F0FF03F8D1002070476FF028
:103590000C0070470004004007B50C4A9378DBB27A
:1035A0000193019B990707D5094B1B6823B150680C
:1035B000984703B05DF804FB019BDB07F9D5044B8A
:1035C0005B68002BF5D0014AF1E700BF0000024123
:1035D0009411002070B5140204F47C54D50541EA1E
:1035E000040103D5140528D541F0010190F80442E7
:1035F00055044CBF44F0100404F0EF0480F804427A
:1036000083608BB2C38140F27F2502F4805340F285
:103610005D26448EA4B2BBB1344225D090F82F3041
:1036200043F0020380F82F30438E9BB26FEA93235E
:103630006FEA83234386002070BD96044CBF41F09F
:10364000030141F00201D1E72C420DD090F82F2068
:1036500042F0020280F82F20428E92B26FEA92224C
:103660006FEA82224286E6E7048EE407D1D58D0612
:103670005FBF038E9BB243F00103038694040ED513
:103680000023591C426A06D190F82F3043F0020300
:1036900080F82F30CFE7D20203F10103F1D50120EA
:1036A00070BD016091F82F3043F0010381F82F3095
:1036B00091F82F0010F00100FAD10E2381F82E307E
:1036C0000F2381F829308B8E9BB26FEA53236FEA68
:1036D00043238B86CB8E9BB26FEA93236FEA8323BF
:1036E000CB867047002303601846704730B50168E9
:1036F0009DF80C4091F82800002C4FD040F00400B9
:1037000081F82800C88F000441D4888D450708D56A
:10371000486A8407FCD1888D20F004000004000C66
:1037200088854C6C254D2648C4F30744002C18BFEF
:1037300028468C8DB0FBF2F224F020042404240CE3
:103740008C8591F8280040074FEA520202D5002AE2
:1037500008BF0122888DC0B240EA022080B288856D
:10376000888D20F0C00000049208000C02F0C00216
:1037700002438A858A8D92B242F001028A858A8D3F
:103780009207FCD58A8D92B242F004028A85012B01
:1037900007D0042B0DD06FF00C0030BD00F0FB0003
:1037A000AEE791F8283003F0FD0381F828300020BF
:1037B00030BD91F8283043F00203F6E700366E0181
:1037C000006CDC020020704700290CBF04200020A0
:1037D00070470368186CC0F34050704782B00023F4
:1037E000019341F28732019B934201D902B07047A5
:1037F000019B01330193F6E730B400680D46416A3E
:1038000011F0010113460BD1848924F00104240432
:10381000240C8481044CC1802A46A44630BC6047F5
:10382000002030BC704700BFD5350100036818691F
:10383000704710B5046803231A1D032B54F8222087
:103840001CBF100E01F8010B100C087013F1FF33B0
:103850004FEA122048708A7001F10301ECD210BDCA
:103860002DE9700305460068BDF81460446AE4075A
:103870002CD4446A14F0020F28D111F4004F14BF65
:103880000024102411F4803F04D111F4003F17D01C
:1038900044F02204A4B28481C3F3090484800D4C53
:1038A000C6804FF000084FF000092B82C5E902895D
:1038B0006E821346A4460A46BDE870032021604785
:1038C00011F4002FE6D111F4801FE1D10020BDE8F2
:1038D00070037047D53501002DE9F74F038AB0F822
:1038E00012800193D0E902AB08FB03F2D317B2EBCD
:1038F0000A0263EB0B03002B08BF042A38BF019BAD
:103900000468274D38BF03F00307019B4FF0000206
:10391000894619460646134650460A46594628BF68
:103920000427A847134315D1638E03F070034BB1EE
:1039300094F82F3043F0020384F82F30002003B0B6
:10394000BDE8F08F238E9A06EED5238E9BB243F00E
:1039500020032386042F236A1DD1C9F80030019962
:103960001AEB07024BF10003A1FB08894B4508BF86
:103970004245C6E902230CD3638E03F07003002B8B
:10398000D6D1238E9B07F7D5238E9BB243F002033B
:1039900023860120D3E77A1E022AE0D8DBB2DCE7D7
:1039A000E5F001002DE9F047D0E90267B0F810809A
:1039B0000468DFF87CA0054689464246002330466D
:1039C0003946D047134314D1638E03F0700343B1DB
:1039D00094F82F3043F0020384F82F300020BDE824
:1039E000F087238EDA06EFD5238E9BB243F01003C7
:1039F0002386C4F820906B8A043647F10007A3FBA6
:103A000008894F4508BF4645C5E902670CD3638E58
:103A100003F07003002BDBD1238E9B07F7D5238E99
:103A20009BB243F0020323860120BDE8F08700BF6C
:103A3000E5F001002DE9F041058ADFF83080074606
:103A400055430E46042415B90120BDE8F0813146E6
:103A50003846C047A5423FBF3B8A93FBF4F204FBC4
:103A60001234E4B22D1B2644EDE700BFD938010023
:103A70002DE9F041058ADFF83080074655430E46B0
:103A8000042415B90120BDE8F08131683846C047EB
:103A9000A5423FBF3B8A93FBF4F204FB1234E4B22D
:103AA0002D1B2644EDE700BFA5390100012070471A
:103AB00001207047C3690B42FCD17047C3690B42B8
:103AC000FCD17047036823F0020303600321014B1C
:103AD000184700BFBD3A0100F8B50368104C43F029
:103AE0000203036003210246A047042610274FF675
:103AF000FF7504211046A047538BC3F30113012B1C
:103B000001D10020F8BD013DF3D1013E04D057831F
:103B100004211046A047EAE76FF00500F8BD00BF9A
:103B2000B53A0100436843F4403343600421014B3C
:103B3000184700BFB53A01002DE9F0410D46574E38
:103B4000D0F8008004210446B047438B15F0010FE4
:103B50009BB2374664D0990717D501210176518869
:103B600089B241F480515180518821F48071090457
:103B700013F0010F4FEA1141518014BF6FF004059B
:103B80006FF003052846BDE8F08113F0040515D059
:103B90005368002BC1BF53889BB243F480535380BA
:103BA00053881F0401D53E4B9847538823F48073F4
:103BB0001B041B0C53806FF00105E3E7538813F4DB
:103BC000806715D013880421DB0903F00607B0478E
:103BD000436A03F4804343F0F1033B43436204210F
:103BE000B047538823F480631B041B0C5380C9E740
:103BF000556845B953881E0401D5294B9847538809
:103C000023F48073F0E793681B7883620421B04744
:103C10009368013393605368013B53600025B1E71B
:103C200015F00205AED05168002933D0580731D4C1
:103C30000139C8F3C060516041B958B9636843F4B1
:103C40008023636004212046B84703E0012901D1A5
:103C50000028F3D1536893B953881B0409D56368CE
:103C600023F48073636020460421B84720460C4B40
:103C70009847538823F480731B041B0C538095686A
:103C80006B1C936004212046B847A36A2B70022363
:103C90002376C3E7022323768DE700BFB53A010000
:103CA000253B01000068036843F002030360032121
:103CB000004B1847BD3A01000068014B184700BF90
:103CC000C53A01000368996270470368986AC0B2F8
:103CD00070470368187E00F0010070470368187E83
:103CE000C0F3400070470368187EC0F3800070473F
:103CF0000069014B184700BFD93A01002DE9F8438C
:103D0000438807690E46D90504467DD473889BB263
:103D100043F48073738096E8070084E807007B68AB
:103D2000434A43F480737B600421384690476168BE
:103D3000256901292B68904638D11A0136D56B6860
:103D400043F480236B6004212846C047228812F484
:103D5000806F4FEA42022DD06388DB0741BF638842
:103D60009BB243F48063638004212846C0476B6A9A
:103D700022F00102520503F48043520D43F4004344
:103D800013436B6204212846C04722694FF48033F5
:103D9000117E013BC9B21FD128462246254DA847B6
:103DA000E8B96388DA0522D4BDE8F8836B6823F4A8
:103DB0008023C7E704212846B4F80290C0471FFAC1
:103DC00089F96B6AD2B209F0010942EA090203F4E7
:103DD00080431A436A62D5E78807D9D0DCE7638855
:103DE00023F480731B041B0C6380BDE8F8832269F5
:103DF0004FF48033117E013BC9B209D08807F9D056
:103E000022463846A847CCE76FF00500BDE8F883A6
:103E100073881B0402D53846074B9847638823F400
:103E200080731B041B0C63806FF00400BDE8F883F3
:103E3000B53A0100393B0100253B0100034B6FF00F
:103E40007F425A6005221A60704700BF10E000E010
:103E50000B0E0C4A30B5D8B26FF07F440138C0B2B7
:103E6000FF2808D1A3EB03631944516091601368E4
:103E7000DB03FCD530BD546094601568ED03FCD5C0
:103E8000ECE700BF10E000E0C268D16AC90703D5C3
:103E90000121D1620368184770470000014B186880
:103EA000014B1847BC0E0020893E0100014B5868A9
:103EB000014B1847BC0E0020893E0100014B986859
:103EC000014B1847BC0E0020893E010003689A6828
:103ED00012F00E0FFBD11A78D20915D19A6812F0A0
:103EE0000E0FFBD11A7892070ED41A7802F0FB025B
:103EF0001A70986810F00E00FBD15A7802F0F002A8
:103F000042F00B025A7070476FF010007047D0B546
:103F10000468A36813F00E0FFBD12378DB0955D199
:103F2000A36813F00E0FFBD12378C3F34003002BDB
:103F30004CD1A2FB01010E461F4656EA07020DD1E5
:103F4000B0F57A3F38D014D8B0F5FA4F30D008D851
:103F5000B0F5FA5F25D0B0F57A5F21D06FF00C0094
:103F6000D0BDB0F57A4F25D0B0F5FA3FF6D1042395
:103F700017E0B0F5FA1F23D007D8B0F5FA2F1DD0FF
:103F8000B0F57A2FEAD107230BE0B0F5FA0F19D07C
:103F9000B0F57A0F18D0B0F57A1FDFD1092300E011
:103FA0000123627802F0F002134363700020D0BD59
:103FB0000223F6E70323F4E70523F2E70623F0E7FD
:103FC0000823EEE70A23ECE70B23EAE76FF0100083
:103FD000D0BD03685A7802F00F020B2A2BD8DFE815
:103FE00002F028060D0F111316191C1F222510238D
:103FF0004FF47A705843B0FBF1F070472023F7E795
:104000004023F5E78023F3E74FF48073F0E74FF4A4
:104010000073EDE74FF48063EAE74FF40063E7E7EE
:104020004FF48053E4E74FF40053E1E74FF480434B
:10403000DEE70823DCE74FF0FF30704703681A78AB
:1040400042F002021A70986810F00E00FBD170471F
:1040500003689A6812F00E0FFBD11A78D20908D1C2
:104060001A7802F0FD021A70986810F00E00FBD169
:1040700070476FF010007047004B18475140010027
:104080000368A5221A73986810F01000FBD17047DE
:1040900070B5891A0824073191FBF4F1084402F045
:1040A000070210F8011CD418082C41FA02F118DD9F
:1040B00010F8025CC2F10806B540102C41EA050177
:1040C0000FDD10F8030CC2F11005182CC8BFC2F1A7
:1040D000180200FA05F541EA0501C4BF00FA02F230
:1040E0001143012098400138084070BD37B50E4B90
:1040F000054601A898476B090C49DB01CA18C95845
:10410000136A14695C400C4001A85C40084B984756
:1041100005F01F05012303FA05F5254214BF1846D3
:10412000002003B030BD00BF853301000080004196
:104130009333010013B5074802680179947B537BE0
:10414000003418BF012400941268034C8068A04713
:1041500002B010BDC80E0020FD330100034B1979D9
:1041600011B99868024B1847704700BFC80E00206D
:104170001534010070B5064600283AD11E4DEB6893
:104180002C46FBB1B3F90000421C1BD01B4BC0B244
:104190009847EB685B88984203D00423AB760220F3
:1041A00070BDAB7E042B01D10123F7E7012B05D1B4
:1041B0000222AA76124A2A616B77AE77A07E032884
:1041C0000CD170BDA37E033B012B07D80223A3763D
:1041D0000B4B2361012363770023A3770023237113
:1041E000084B2360084B9847A07E831E58425841D5
:1041F00070BD042070BD00BFC80E0020ED4001005E
:10420000801A0600D80E0020354101002DE9F84340
:104210000028164CDFF85C80DFF85C90144F40F605
:10422000350608BF4FF4FC17002241F23711A06891
:10423000C04718B900252846BDE8F8833A4644F23D
:104240002951A068C04705460028F3D0A068C84798
:10425000002807DA4300EED52268D37A43F008033A
:10426000D372E8E7013EDFD1E4E700BFC80E0020CB
:1042700000801F40353401003D34010010B5044B6F
:1042800004249C76FF241C719860D9601A6510BDC7
:10429000C80E00202DE9F04F8B4BDFF858B295B0D7
:1042A00098470128074604D0D847384615B0BDE8DE
:1042B000F08F864C864E23680025D8721D731D81B1
:1042C000A068B0472A464FF48041A068814DA847B6
:1042D0000296E8B14FF4D57245F20851A068A8479C
:1042E000002800F09E81A0687B4B9847461C00F098
:1042F0009881C0F30B00B0F5D57F09D1384623680B
:10430000DB7ADB0708D5754B984728B92368D87244
:10431000236803279F72C7E72368DB7AD9072DD567
:10432000002245F60231A068A8470028F0D0216895
:104330006B4BA06830319847236893F8302093F88E
:104340003310DA7393F831201A74D97493F8322049
:1043500093F834105A741975002293F835109A7432
:1043600059751A7693F8361093F8382099755A765D
:1043700093F83710D3F83920D975DA61002245F265
:104380000311A068A8470028C2D0534EA068D4F8F3
:104390000080B04723680396000CA8F80800DA7A7A
:1043A00012F0010F37D01A89A068120441F60931C2
:1043B000A8470028ACD02168A068494BDFF83881B5
:1043C00020319847D4F800A00AF120090823602280
:1043D00080214846C047434AC0F3C30100F00700AC
:1043E00002EB80004FF47A73006C52F821204343B3
:1043F0005343CAF800307E22022380214846C0473A
:1044000000284AD01623302280214846C047013078
:104410004002CAF804002368A0681A8943F2071111
:104420001204A84700283FF473AF2368DA7AD20752
:1044300069D51A89A068120441F23711A8470028EB
:104440003FF466AF01260196009608230022264914
:10445000A068DFF8A880C04700283FF459AF324673
:1044600004A9A068214B984700283FF451AFA068E9
:104470001F4B984700283FF44BAF042338224021BC
:1044800004A8DFF87480C047B04239D002D30228B4
:1044900000F0BC802368102234E00C233E228021EF
:1044A0004846C047032306462F2280214846C0477E
:1044B0000136023086400423502280214846C047FE
:1044C00006FA00F0800AA4E775410100C80E00203A
:1044D0002D340100353401003D3401000D4201004E
:1044E00045340100844B0200331108006934010097
:1044F000793401005D410100914001004D3401001B
:1045000023681A221A732179A068474B9847032819
:1045100019D92368DA7AD60713D51A89A068120444
:1045200041F23711A84700283FF4F2AE022241F2CF
:104530000611A068A84700283FF4EAAE23680422C9
:104540005A733A4B9847A068394B984700284CD08B
:104550002368DA7AD00746D51B7B102B43D940223B
:104560000021344BDFF8E080012604A8984701962B
:1045700000964023304A3149A068C04700283FF4E4
:10458000C7AE324604A9A0682D4B984700283FF4D7
:10459000BFAEA0682B4B984700283FF4B9AEA06887
:1045A000039B984701063FF5B3AE04234FF4BC725A
:1045B0004FF4007104A8DFF89480C0470F2812D090
:1045C00010234FF488724FF400710DEB0300C047C5
:1045D00000287FF49DAE029BA068984723681A6864
:1045E0009E73B2401A60114B98472368DB7ADA0752
:1045F00008D54FF4007241F21011A068A8470028B6
:104600003FF486AE236800229A724DE62F2233468D
:10461000402104A8C047012823680CBF3022202273
:1046200070E700206BE600BF1D340100354101003A
:10463000253401008BF5010001FFFF800611080001
:1046400069340100793401004D34010091400100CA
:1046500008B5054B984728B9044B9847044B186890
:10466000133008BD002008BD754101005D41010007
:10467000C80E002008B5054B984728B9044B984749
:10468000044B1B68D87B08BD002008BD75410100A4
:104690005D410100C80E002008B5054B984728B9B8
:1046A000044B9847044B1868103008BD002008BD23
:1046B000754101005D410100C80E002008B5054BA1
:1046C000984728B9044B9847044B1B68587E08BD8F
:1046D000002008BD754101005D410100C80E0020A9
:1046E00008B5054B984728B9044B9847044B1B68FD
:1046F000D86908BD002008BD754101005D41010079
:10470000C80E002008B5054B984728B9044B9847B8
:10471000044B1B68987B08BD002008BD7541010053
:104720005D410100C80E002008B5054B984728B927
:10473000044B9847044B1B68D87A08BD002008BD7D
:10474000754101005D410100C80E002008B5054B10
:10475000984728B9044B9847044B1B68187B08BD41
:10476000002008BD754101005D410100C80E002018
:1047700008B5054B984728B9044B9847044B1B686C
:10478000586808BD002008BD754101005D41010069
:10479000C80E002008B5054B984728B9044B984728
:1047A000044B1B68186808BD002008BD7541010056
:1047B0005D410100C80E002038B50A4C236D7BB165
:1047C00000B2850033F92000421C09D0064BC0B26C
:1047D0009847236D2B445B881B1A5842584138BDBB
:1047E000002038BDC80E0020ED4001002DE9F74F34
:1047F000224B8946154698478046C8B9204FDFF8B6
:104800009CA0DFF89CB03C463B68B8681A8941F22E
:104810000D111204D84738B1B8681A4EB047C20516
:104820000AD4BAF1010AEFD1174B98474FF00508A7
:10483000404603B0BDE8F08F144B1549012D98BFD9
:1048400019462368DB7A1B0701D44FEA4929012363
:10485000019300954FF400734A46A0680D4FB84786
:104860000028E1D0A068B0470B4B0340002BDBD100
:10487000A4F85450A4F85650DAE700BF754101007F
:10488000C80E00203D3401005D41010011110800F7
:10489000121110004D340100000058E4410D0300D6
:1048A0003534010038B5094C094B0D460A4601461E
:1048B000A068984718B9A4F85400052038BDB4F88A
:1048C0005410491BA4F85410002038BDC80E002015
:1048D0006934010070B5144E144B0446B068984713
:1048E0003546F0B14CB10023A6F85430B5F8563037
:1048F000012B08D10E4B984703E0B6F85430002B3B
:10490000F4D0002070BD002243F20C11A868094CBD
:10491000A04702460028EDD143F20C11A868A04739
:10492000E8E7052070BD00BFC80E00207934010003
:104930005D41010035340100F7B51B4B04460D46BF
:1049400017469847064630B92046184B984728B175
:10495000174B98470726304603B0F0BD154B164C51
:104960001649012F88BF19462368DB7A00971B0779
:104970004FF0010358BF6D0201932A464FF40073B4
:10498000A0680F4DA84718B9094B98470526E2E7DC
:104990000C4BA06898470C4B0340002BF4D1A4F8B3
:1049A0005470A4F85670D6E775410100B94701006C
:1049B0005D41010019911000C80E002018910800F7
:1049C0004D3401003D340100000058E438B5094C75
:1049D000094B0D460A460146A068984718B9A4F845
:1049E0005400052038BDB4F85410491BA4F85410E5
:1049F000002038BDC80E00207134010038B5114DBB
:104A0000114B0446A86898472B46C8B14CB1002208
:104A1000A5F85420B3F856200C4C012A07D1A04722
:104A200003E0B5F85420002AF4D0002038BD98687F
:104A3000074B002243F20C1198470028EFD1A04702
:104A4000052038BDC80E0020813401005D41010001
:104A50003534010008B50B4630B911461846044BF1
:104A6000984740EAE07008BD4FF0FF3008BD00BF36
:104A7000C54A01000138022808B50B4606D8114680
:104A80001846044B984740EAE07008BD4FF0FF30ED
:104A900008BD00BFE14A010070B5074D074C2B6807
:104AA000064600219868A0472B6800215868A04757
:104AB000034B1E6070BD00BF34080020C107020018
:104AC000200F0020044A08B50346106818B18AB2C6
:104AD0001946024B984708BD200F002001B4010081
:104AE000044A08B50346106818B18AB21946024B49
:104AF000984708BD200F0020A1B3010083680B4236
:104B0000FCD17047036843F0020303600321014BAB
:104B1000184700BFFD4A0100036823F00203036049
:104B20000321014B184700BFFD4A01000160014B02
:104B300003211847FD4A010030B54A1CC4B2C0F336
:104B40004712164804F01F0300EBC21007D11844A7
:104B500090F8403003F0FE0380F8403030BDC518B7
:104B60005B0895F8402002F0FE02184442F0010272
:104B700085F8402090F8303014F0010F19BF03F091
:104B80000F0343EA011101F00F0103F0F00314BF1A
:104B9000C9B2194380F8301030BD00BF0080004119
:104BA000024AD3690342FCD1704700BF0040014173
:104BB000024B1878C0F34000704700BF280F002058
:104BC000024B1878C0F38000704700BF280F002008
:104BD00008B50D4B0D484FF400229A615A610C4BF9
:104BE00098470C4B08221A760B4A1378013BDBB22C
:104BF000137043B9094B4FF00052C3F88420BFF340
:104C00004F8FBFF36F8F08BD0080004100600141EE
:104C1000054B0100004001410000002000E100E0E0
:104C200070B5444B4449454C4022C3F8E020432230
:104C3000C3F88C20424A936943F480639361CB6943
:104C400013F0010F10D10320A0470B689B0707D575
:104C50000B6823F0020303200B60A0470220A0474B
:104C600009230B600320A0470120A0473249354BA0
:104C70000B600320A0470B6823F4403343F4003358
:104C80000B601720A0470B6823F440130B6017201C
:104C9000A0472D4B4B601720A0478B6843F08073D3
:104CA0008B6000238B75FF230B75CB69002BFCD128
:104CB000264C274D274E28494FF400136360274B9D
:104CC000A562A36294F8553003F0FE0384F85530D2
:104CD0004FF480036360224BA562A36294F85630C0
:104CE00003F0FB0384F856301620B0474FF400035E
:104CF0001C4A6360A562A262636094F857201A4957
:104D000042F0040284F8572017206361B0474FF443
:104D100080136360154BA562A36294F85430144964
:104D200003F0FB0384F8543014203346BDE8704090
:104D3000184700BF001C004000400141A14B01008A
:104D4000000800400800001000020200008000413E
:104D500000000240394B010002001600200002C092
:104D6000400002C0800002C002001700100002C014
:104D7000030014002DE9F74FA14EA24F00914843C4
:104D800002243146651CB6FBF5FE7045C0F02A8151
:104D9000302C40F22C81DFF8B4929B481060621CEA
:104DA000B1FBF2F20099B2FBF1F21A60D9F81C30B3
:104DB000DFF89CA2954EDFF89CB2954F954D43F0DD
:104DC0001003C9F81C304023CAF8F430D9F8182071
:104DD00042F40062C9F81820CAF8E430D9F8182063
:104DE00042F48052C9F81820CAF8E430D9F81C20DF
:104DF00042F00802C9F81C203046CAF8F43001938A
:104E0000854B984730460121D84730460021D84786
:104E10000223F363304643F6FF71B8473023B3648F
:104E200030464FF47C514FF00008B84734643046A8
:104E30008021B84710213046C6F83480B847774AF9
:104E4000754B774C1046984701211046D84741468C
:104E50001046D8470223D363104643F6FF71B84784
:104E60000323536510464FF47C51B8470521116464
:104E700010468021B84710211046C2F83480B84748
:104E8000654B2846984728460121D8472846414681
:104E9000D8471F21296428468021B8471021284679
:104EA000C5F83480B8475C4B20469847204601211E
:104EB000D84720464146D847009B591E21642046CA
:104EC0008021B8472046C4F834801021B847019BA0
:104ED000CAF8AC30CAF8B030CAF8B430CAF8B83042
:104EE000D9F8183043F08003C9F818304D4B012031
:104EF0001870116A41F480711162296A41F480715D
:104F00002962216A41F480712162316A41F00071A5
:104F100031620221C3F89C01C3F868110321C3F870
:104F200084110421C3F8641140F24321196240F254
:104F30003221996240F22921196340F239219963A3
:104F4000136A3949394E43F480431362136A43F0BC
:104F500003031362136A43F400431362136A43F0BA
:104F6000180313622B6A43F480432B622B6A43F0CD
:104F700002032B62236A43F480432362236A43F0D3
:104F8000020323622A4C2B4B4FF400354FF080472D
:104F9000C4F888503120C4F8A870C4F8A830B047CD
:104FA000C4F8845094F8D130234943F0040384F8C2
:104FB000D130C4F89450214B4FF48035C4F8885058
:104FC0003020C4F8A870C4F8A830B047C4F88450A2
:104FD00094F8D03043F0040384F8D0304046C4F84D
:104FE00094500AE0BD422C467FF4CCAED3E6144C7C
:104FF0001448A0471448A047042003B0BDE8F08F30
:1050000000D8B805007701000024F4000010004229
:10501000FD4A010000800141194B0100006001417F
:10502000000C004200E0004105003100394B010056
:1050300000800041020000C006003000010000C0F6
:1050400091070200204C0200784C0200000800404A
:10505000001C00402D4B010038B5354C94F84E50E3
:10506000C5F34005002D49D0022384F84E30314C61
:10507000314DD4E90423D4E90201A847237E627E9E
:1050800003339B1A032593FBF5F202EB42029B1AB2
:10509000DBB2022BC4E9020123460CD1A27E01320D
:1050A000D2B2A276627E013292FBF5F404EB4404A4
:1050B000121BD2B25A761C7E204A9D8B52F8244095
:1050C00065801C7E52F82440228892B242F0010290
:1050D00022801C7E1A4A02EBC402C2E900011A7E39
:1050E0000321013292FBF1F101EB4101521AD2B2DC
:1050F0001A76144B4FF00072DA6138BD94F84E30D6
:10510000DA070AD5104B94F84F101048984701233E
:1051100084F84E30074B9D7738BD94F84E305B07CE
:1051200005D50B4B0B489847042384F84E3038BD07
:1051300000A00041280F00201DE7010018F2012007
:1051400048F201200080004115060200C14C020017
:1051500091070200ED4C02002DE9F0432A4B2B4D44
:105160002B4E2C4F85B0044698472B4B00209C8338
:105170002A4B98472A4B6B601033AB600DF10A0342
:10518000286002AA009303A90DF109030020B0478B
:105190000022BDF80A80DFF890E029464FF4204C49
:1051A0001646032551F822300CFB02E0A3F80080DC
:1051B00098605F60DE60D3F808901888C0F3012023
:1051C00004FA00F048449860013292FBF5F000EBDD
:1051D0004000101A5C8051F82000D860032AE1D109
:1051E000104B022283F84D20012283F84D20042227
:1051F00083F84D201A8892B242F0020200201A80F1
:1052000005B0BDE8F08300BF3D6A010018F201203F
:10521000156B010028400141280F0020396B010067
:10522000E0F1012000A00041E01100202DE9F04F45
:10523000017C8B1E012B89B0064607D9AD48AE4BC9
:105240009847FF27384609B0BDE8F08FAB49AC4B13
:1052500090F82990D0F81C8090F82840A94D9847E4
:1052600096F82B00A849E8774FF4F0470123032272
:1052700033833B1A93FBF2F39BB23274B382AB835A
:105280000A70A24BA24A7782B9F1040F578083F8C3
:10529000009003919B469F4F0FD0B9F1080F00F08B
:1052A000E580B9F1100F00F05381B9F1200F00F043
:1052B000938149469848904B9847032C40F2D081FF
:1052C0004FF0040921468C4B9448002498474FF036
:1052D000FF330222214612200094B8474FF0FF33DB
:1052E0000222214636200094B8474FF0FF330222B5
:1052F000214637200094B8474FF0FF330222214661
:1053000013200094B8474FF0FF33022221460720B4
:105310000094B8474FF0FF33022221460F2000943B
:10532000B8474FF0FF330222009421460E20B847C1
:105330007B4B4FF480229A61B9F1040F4FF0800249
:105340009A6135D1764B4FF48002C3F894204FF424
:105350000002C3F894204FF0040A714B714F4FF0D4
:1053600000725A6114F0010F4FF4004214BF9A61A9
:105370005A6114F0020F4FF4804214BF9A615A61CF
:10538000674B4FF400229A61A88B674B9847674B95
:10539000069308AB06AA43F8048D51464046B84729
:1053A0000746002837D00146534B6148984749E7E4
:1053B000B9F1080F0BD15A4B4FF48002C3F8982073
:1053C0004FF40002C3F894204FF0080AC5E7B9F182
:1053D000100F0BD1524B4FF48002C3F894204FF4BE
:1053E0000002C3F898204FF0100AB6E7B9F1200F79
:1053F0000BD14B4B4FF48002C3F898204FF40002BE
:10540000C3F898204FF0200AA7E74A4B4A481B6888
:1054100099684A4B14E74A4A079B1360494A33622A
:105420000593A88B04929047059B049A80461846E2
:105430008946904702460B4640464946DFF80C81B4
:10544000C047414BC5E904019847B38A039AAB832F
:10545000337C137001238BF800A085F8204085F879
:1054600021706F702B7085F82230EBE6032C3FF62D
:1054700029AF4FF000094FF0FF33022249461220B6
:10548000CDF80090B8474FF0FF330222494636204E
:10549000CDF80090B8474FF0FF330222494637203D
:1054A000CDF80090B8474FF0FF3302224946132051
:1054B000CDF80090B8474FF0FF330222494607204D
:1054C000CDF80090B8474FF0FF33022249460F2035
:1054D000CDF80090B8474FF0FF330222CDF800908E
:1054E00049460E20B8470E4B4FF480229A61802225
:1054F0009A6160E7044D0200150602002D4D02007E
:10550000F70A0200280F002010F201203CF20120CF
:1055100000000020BD7C0100354D0200624D0200FC
:1055200000800041754D0100595101000024F40034
:105530009D4D020034080020824D02000DF501004F
:1055400014F2012095E90100214C0100D5EC010085
:10555000032C3FF6B7AE4FF000094FF0FF330222A5
:1055600049461220CDF80090B8474FF0FF33022291
:1055700049463620CDF80090B8474FF0FF3302225D
:1055800049463720CDF80090B8474FF0FF3302224C
:1055900049461320CDF80090B8474FF0FF33022260
:1055A00049460720CDF80090B8474FF0FF3302225C
:1055B00049460F20CDF80090B8474FF0FF33022244
:1055C000CDF8009049460E20B847464B4FF4802254
:1055D0009A6180229A61FDE6032C3FF673AE4FF08C
:1055E00000094FF0FF33022249461220CDF8009007
:1055F000B8474FF0FF33022249463620CDF80090DD
:10560000B8474FF0FF33022249463720CDF80090CB
:10561000B8474FF0FF33022249461320CDF80090DF
:10562000B8474FF0FF33022249460720CDF80090DB
:10563000B8474FF0FF33022249460F20CDF80090C3
:10564000B8474FF0FF330222CDF8009049460E20B4
:10565000B847244B4FF480229A6180229A61C8E6B1
:105660004FF000094FF0FF33022249461220CDF8D7
:105670000090B8474FF0FF33022249463620CDF85C
:105680000090B8474FF0FF33022249463720CDF84B
:105690000090B8474FF0FF33022249461320CDF85F
:1056A0000090B8474FF0FF33022249460720CDF85B
:1056B0000090B8474FF0FF33022249460F20CDF843
:1056C0000090B8474FF0FF330222CDF800904946D2
:1056D0000E20B847034B4FF480229A6180229A61D2
:1056E00030E600BF0080004130B5144A1449154827
:1056F000002313600A6C22F002020A64124A948B9F
:10570000537603251376937650F82320591C91FB8A
:10571000F5F303EB4303CB1A032950F82330D3608E
:10572000548013889BB243F0010313800B46EBD1E6
:10573000034A136C43F00203136430BD40F20120AE
:1057400000A0004118F20120280F002010B5164CCF
:1057500094F8223023B91548154BBDE8104018477E
:10576000144A00231360144A63762376A3761368E1
:1057700043F0020313600320104B9847104B9847E7
:10578000104B11484FF400225A61104A90471048BC
:105790009047104890471048904701236370237842
:1057A00043F00203237010BD280F0020C14D0200FA
:1057B0009107020040F2012000400141A14B01008D
:1057C000E95601000080004100800141054B0100C5
:1057D000000C0042006001410010004270B50F4C07
:1057E00094F82230054623B90D480E4BBDE87040B1
:1057F00018470D4B98470D4B28469847237843F0A0
:1058000004032370D5E90001094BC3E90001D5E980
:105810000023C4E90A23C4E9022370BD280F002035
:10582000E14D0200910702004D570100CD9D01009E
:1058300048F20120064A11680023CB605168CB6012
:105840009268D360034A136C23F002031364704719
:1058500018F2012000A0004110B5134C94F822303A
:1058600023B91248124BBDE810401847114B4FF4B2
:1058700000229A61104B9847104A114890471148EE
:1058800090471148904711489047114A136823F0F8
:105890000203136003200F4B9847002363702378A3
:1058A00023F00603237010BD280F0020034E0200D2
:1058B000910702000080004135580100194B01009A
:1058C00000800141000C00420060014100100042D4
:1058D00000400141A14B010008B5044B9847044B1F
:1058E00080225A614FF480225A6108BD5958010044
:1058F00000800041000000002DE9F04F844D6A7ED9
:105900002B7E9A428BB007460E4600F0F8806A7EE6
:10591000804B814803904FF4204101FB0232697EA5
:105920007E4B026003EBC10393ED007B6B7E032192
:10593000013393FBF1F101EB41015B1ADBB26B76B2
:10594000AB8B02939900764B1B78032B8DED007B7C
:1059500069D133461046A0EB020E7145A3EB060455
:1059600003F1030354D8EB7F062B40F08C80D5E97C
:105970000A23DFF8B491DFF8B481DDE90001C847FC
:10598000CDE90001C047674B08909DED000B8346B1
:105990004FEA102A9847DDE9000153EC102BC84765
:1059A00059A3D3E90023DFF88891C847C04706F818
:1059B00004B03444C0F307230990A070E370C0F32F
:1059C0000743000E84F801A023716071AA7E95F848
:1059D0002130002A00F08E8043F0100385F821303A
:1059E0000023AB769DED007B95F8203087F82830BA
:1059F0002B7887F82C30039A95F8213087F82D30D2
:105A000087ED0C7B0023136002980BB0BDE8F08F8C
:105A1000847803F8034C447803F8024C10F8044BE4
:105A200003F8014C97E7022B0FD10024B1EB440F90
:105A300002F1040297D912F8033C335502343319AA
:105A400012F8040C03F8010CF0E7042B19D13346CB
:105A500000248C4202F1040203F1040383D212F801
:105A6000010C03F8040C12F8020C03F8030C12F8F2
:105A7000030C03F8020C12F8040C03F8010C0434B4
:105A8000E7E700246FE7082BA0D1DDE90001DFF88C
:105A90009C80DFF894A0C047030C0493030E069388
:105AA0009DED000B1F4B089081464FEA102B984745
:105AB000DDE9000153EC102BD04713A3D3E90023F9
:105AC000DFF86CA0D047C04706F8049034449DF836
:105AD0001030A3709DF81830E370C0F307230990CD
